:020000040800F2
:1000000000500020C1320008D1310008D33100086F
:10001000D5310008D7310008D931000800000000B0
:10002000000000000000000000000000DB310008BC
:10003000DD31000800000000DF310008E131000878
:1000400009330008093300080933000809330008A0
:100050000933000809330008093300080933000890
:100060000933000809330008093300080933000880
:10007000093300080933000809330008E531000896
:100080000933000809330008093300080933000860
:10009000F131000809330008FD3100080933000878
:1000A0000933000809330008093300080933000840
:1000B0000933000809330008093300080933000830
:1000C0000933000809330008093300080933000820
:1000D0000933000801320008093300080933000819
:1000E0000933000809330008093300080000000044
:1000F0000000000000000000000000000000000000
:0C01000000000000000000005FF808F1A3
:1001100010B5054C237833B9044B13B10448AFF341
:1001200000800123237010BD140200200000000095
:10013000EC89000808B5034B1BB103490348AFF332
:10014000008008BD0000000018020020EC890008B3
:10015000034613F8012B002AFBD1181A0138704707
:1001600081F0004102E000BF83F0004330B54FEA68
:1001700041044FEA430594EA050F08BF90EA020FD5
:100180001FBF54EA000C55EA020C7FEA645C7FEA68
:10019000655C00F0E2804FEA5454D4EB5555B8BF8B
:1001A0006D420CDD2C4480EA020281EA030382EAFC
:1001B000000083EA010180EA020281EA0303362D8E
:1001C00088BF30BD11F0004F4FEA01314FF4801C61
:1001D0004CEA113102D0404261EB410113F0004F73
:1001E0004FEA03334CEA133302D0524263EB43032A
:1001F00094EA050F00F0A780A4F10104D5F1200EC8
:100200000DDB02FA0EFC22FA05F2801841F1000122
:1002100003FA0EF2801843FA05F359410EE0A5F1F6
:1002200020050EF1200E012A03FA0EFC28BF4CF027
:10023000020C43FA05F3C01851EBE37101F00045DD
:1002400007D54FF0000EDCF1000C7EEB00006EEBEA
:100250000101B1F5801F1BD3B1F5001F0CD3490874
:100260005FEA30004FEA3C0C04F101044FEA4452CB
:1002700012F5800F80F09A80BCF1004F08BF5FEA52
:10028000500C50F1000041EB045141EA050130BD32
:100290005FEA4C0C404141EB0101013C28BFB1F544
:1002A000801FE9D291F0000F04BF01460020B1FA8F
:1002B00081F308BF2033A3F10B03B3F120020CDA62
:1002C0000C3208DD02F1140CC2F10C0201FA0CF040
:1002D00021FA02F10CE002F11402D8BFC2F1200CA5
:1002E00001FA02F120FA0CFCDCBF41EA0C0190405B
:1002F000E41AA2BF01EB0451294330BD6FEA0404A4
:100300001F3C1CDA0C340EDC04F11404C4F120028E
:1003100020FA04F001FA02F340EA030021FA04F3A0
:1003200045EA030130BDC4F10C04C4F1200220FAF7
:1003300002F001FA04F340EA0300294630BD21FA35
:1003400004F0294630BD94F0000F83F4801306BFFB
:1003500081F480110134013D4EE77FEA645C18BFEF
:100360007FEA655C29D094EA050F08BF90EA020F86
:1003700005D054EA000C04BF1946104630BD91EA7E
:10038000030F1EBF0021002030BD5FEA545C05D181
:100390004000494128BF41F0004130BD14F58004C0
:1003A0003CBF01F5801130BD01F0004545F0FE4134
:1003B00041F470014FF0000030BD7FEA645C1ABF69
:1003C000194610467FEA655C1CBF0B46024650EAA0
:1003D000013406BF52EA033591EA030F41F40021CC
:1003E00030BD00BF90F0000F04BF0021704730B552
:1003F0004FF4806404F132044FF000054FF0000127
:1004000050E700BF90F0000F04BF0021704730B5E7
:100410004FF4806404F1320410F0004548BF4042BC
:100420004FF000013EE700BF42004FEAE2014FEA11
:1004300031014FEA02701FBF12F07F4393F07F4FEC
:1004400081F06051704732F07F4208BF704793F0EF
:100450007F4F04BF41F40021704730B54FF4607402
:1004600001F0004521F000411CE700BF50EA010205
:1004700008BF704730B54FF000050AE050EA0102AE
:1004800008BF704730B511F0004502D5404261EB1E
:1004900041014FF4806404F132045FEA915C3FF45F
:1004A000D8AE4FF003025FEADC0C18BF03325FEAFC
:1004B000DC0C18BF033202EBDC02C2F1200300FAAD
:1004C00003FC20FA02F001FA03FE40EA0E0021FAD2
:1004D00002F11444BDE600BF70B54FF0FF0C4CF4C0
:1004E000E06C1CEA11541DBF1CEA135594EA0C0F72
:1004F00095EA0C0F00F0DEF82C4481EA030621EAAD
:100500004C5123EA4C5350EA013518BF52EA0335E7
:1005100041F4801143F4801338D0A0FB02CE4FF099
:100520000005E1FB02E506F00042E0FB03E54FF0C9
:100530000006E1FB03569CF0000F18BF4EF0010EC1
:10054000A4F1FF04B6F5007F64F5407404D25FEABD
:100550004E0E6D4146EB060642EAC62141EA555170
:100560004FEAC52040EA5E504FEACE2EB4F1FD0CB2
:1005700088BFBCF5E06F1ED8BEF1004F08BF5FEA30
:10058000500E50F1000041EB045170BD06F00046E2
:1005900046EA010140EA020081EA0301B4EB5C048F
:1005A000C2BFD4EB0C0541EA045170BD41F4801187
:1005B0004FF0000E013C00F3AB8014F1360FDEBFAC
:1005C000002001F0004170BDC4F10004203C35DA88
:1005D0000C341BDC04F11404C4F1200500FA05F30B
:1005E00020FA04F001FA05F240EA020001F00042AC
:1005F00021F0004110EBD37021FA04F642EB060122
:100600005EEA430E08BF20EAD37070BDC4F10C044B
:10061000C4F1200500FA04F320FA05F001FA04F20F
:1006200040EA020001F0004110EBD37041F10001FB
:100630005EEA430E08BF20EAD37070BDC4F1200506
:1006400000FA05F24EEA020E20FA04F301FA05F26E
:1006500043EA020321FA04F001F0004121FA04F216
:1006600020EA020000EBD3705EEA430E08BF20EAE6
:10067000D37070BD94F0000F0FD101F00046400020
:1006800041EB010111F4801F08BF013CF7D041EAA2
:10069000060195F0000F18BF704703F000465200A6
:1006A00043EB030313F4801F08BF013DF7D043EA77
:1006B0000603704794EA0C0F0CEA135518BF95EA2D
:1006C0000C0F0CD050EA410618BF52EA4306D1D1B4
:1006D00081EA030101F000414FF0000070BD50EAD3
:1006E000410606BF1046194652EA430619D094EA5D
:1006F0000C0F02D150EA013613D195EA0C0F05D147
:1007000052EA03361CBF104619460AD181EA03019A
:1007100001F0004141F0FE4141F470014FF0000052
:1007200070BD41F0FE4141F4780170BD70B54FF0ED
:10073000FF0C4CF4E06C1CEA11541DBF1CEA13556D
:1007400094EA0C0F95EA0C0F00F0A7F8A4EB05044F
:1007500081EA030E52EA03354FEA013100F0888046
:100760004FEA03334FF0805545EA131343EA12630F
:100770004FEA022245EA111545EA10654FEA0026C4
:100780000EF000419D4208BF964244F1FD0404F57D
:10079000407402D25B084FEA3202B61A65EB0305D9
:1007A0005B084FEA32024FF480104FF4002CB6EB96
:1007B000020E75EB030E22BFB61A754640EA0C0016
:1007C0005B084FEA3202B6EB020E75EB030E22BF56
:1007D000B61A754640EA5C005B084FEA3202B6EB97
:1007E000020E75EB030E22BFB61A754640EA9C0056
:1007F0005B084FEA3202B6EB020E75EB030E22BF26
:10080000B61A754640EADC0055EA060E18D04FEAE3
:10081000051545EA16754FEA06164FEAC30343EA83
:1008200052734FEAC2025FEA1C1CC0D111F4801F50
:100830000BD141EA00014FF000004FF0004CB6E749
:1008400011F4801F04BF01430020B4F1FD0C88BFE8
:10085000BCF5E06F3FF6AFAEB5EB030C04BFB6EBF3
:10086000020C5FEA500C50F1000041EB045170BDE6
:100870000EF0004E4EEA113114EB5C04C2BFD4EB13
:100880000C0541EA045170BD41F480114FF0000E97
:10089000013C90E645EA060E8DE60CEA135594EA13
:1008A0000C0F08BF95EA0C0F3FF43BAF94EA0C0F16
:1008B0000AD150EA01347FF434AF95EA0C0F7FF48B
:1008C00025AF104619462CE795EA0C0F06D152EADF
:1008D00003353FF4FDAE1046194622E750EA4106C3
:1008E00018BF52EA43067FF4C5AE50EA41047FF4D4
:1008F0000DAF52EA43057FF4EBAE12E74FF0FF3C39
:1009000006E000BF4FF0010C02E000BF4FF0010C09
:100910004DF804CD4FEA410C7FEA6C5C4FEA430C82
:1009200018BF7FEA6C5C1BD001B050EA410C0CBFD1
:1009300052EA430C91EA030F02BF90EA020F002033
:10094000704710F1000F91EA030F58BF994208BF9A
:1009500090422CBFD8176FEAE37040F00100704757
:100960004FEA410C7FEA6C5C02D150EA013C07D1AE
:100970004FEA430C7FEA6C5CD6D152EA033CD3D0F9
:100980005DF8040B704700BF8446104662468C46F3
:100990001946634600E000BF01B5FFF7B7FF002826
:1009A00048BF10F1000F01BD4DF808EDFFF7F4FF4F
:1009B0000CBF012000205DF808FB00BF4DF808EDDA
:1009C000FFF7EAFF34BF012000205DF808FB00BFFD
:1009D0004DF808EDFFF7E0FF94BF012000205DF81F
:1009E00008FB00BF4DF808EDFFF7CEFF94BF0120D4
:1009F00000205DF808FB00BF4DF808EDFFF7C4FFCD
:100A000034BF012000205DF808FB00BF4FEA410C15
:100A10007FEA6C5C02D150EA013C0AD14FEA430CF8
:100A20007FEA6C5C02D152EA033C02D14FF0000035
:100A300070474FF0010070474FEA410212F5001273
:100A400015D211D56FF47873B3EB625212D94FEA15
:100A5000C12343F0004343EA505311F0004F23FAFF
:100A600002F018BF404270474FF00000704750EA54
:100A7000013005D111F0004008BF6FF00040704711
:100A80004FF00000704700BF4FEA4102B2F1E0436F
:100A900024BFB3F5001CDCF1FE5C0DD901F0004C65
:100AA0004FEAC0024CEA5070B2F1004F40EB8300B5
:100AB00008BF20F00100704711F0804F21D113F1E1
:100AC0003872BCBF01F00040704741F480114FEA1A
:100AD0005252C2F11802C2F1200C10FA0CF320FAA3
:100AE00002F018BF40F001004FEAC1234FEAD323C0
:100AF00003FA0CFC40EA0C0023FA02F34FEA43032A
:100B0000CCE77FEA625307D150EA01331EBF4FF0B2
:100B1000FE4040F44000704701F0004040F0FE40CD
:100B200040F40000704700BF80F0004002E000BFCA
:100B300081F0004142001FBF5FEA410392EA030FC8
:100B40007FEA226C7FEA236C6AD04FEA1262D2EB12
:100B50001363C1BFD218414048404140B8BF5B4217
:100B6000192B88BF704710F0004F40F4000020F0B0
:100B70007F4018BF404211F0004F41F4000121F0C6
:100B80007F4118BF494292EA030F3FD0A2F1010210
:100B900041FA03FC10EB0C00C3F1200301FA03F14E
:100BA00000F0004302D5494260EB4000B0F5000F71
:100BB00013D3B0F1807F06D340084FEA310102F130
:100BC0000102FE2A51D2B1F1004F40EBC25008BFE2
:100BD00020F0010040EA03007047490040EB0000AC
:100BE000013A28BFB0F5000FEDD2B0FA80FCACF1AD
:100BF000080CB2EB0C0200FA0CF0AABF00EBC250DA
:100C000052421843BCBFD0401843704792F0000FC7
:100C100081F4000106BF80F400000132013BB5E71A
:100C20004FEA41037FEA226C18BF7FEA236C21D090
:100C300092EA030F04D092F0000F08BF08467047F5
:100C400090EA010F1CBF0020704712F07F4F04D1C3
:100C5000400028BF40F00040704712F100723CBFD6
:100C600000F50000704700F0004343F0FE4040F400
:100C7000000070477FEA226216BF08467FEA2363BE
:100C80000146420206BF5FEA412390EA010F40F4A9
:100C9000800070474FF0000304E000BF10F00043F5
:100CA00048BF40425FEA000C08BF704743F09643DC
:100CB00001464FF000001CE050EA010208BF7047F7
:100CC0004FF000030AE000BF50EA010208BF70477E
:100CD00011F0004302D5404261EB41015FEA010C93
:100CE00002BF84460146002043F0B64308BFA3F18B
:100CF0008053A3F50003BCFA8CF2083AA3EBC2536D
:100D000010DB01FA02FC634400FA02FCC2F120028B
:100D1000BCF1004F20FA02F243EB020008BF20F0C2
:100D20000100704702F1200201FA02FCC2F1200228
:100D300050EA4C0021FA02F243EB020008BF20EA1D
:100D4000DC7070474FF0FF0C1CEAD0521EBF1CEA4B
:100D5000D15392EA0C0F93EA0C0F6FD01A4480EA39
:100D6000010C400218BF5FEA41211ED04FF0006322
:100D700043EA501043EA5111A0FB01310CF000404E
:100D8000B1F5000F3EBF490041EAD3715B0040EA74
:100D9000010062F17F02FD2A1DD8B3F1004F40EB44
:100DA000C25008BF20F00100704790F0000F0CF017
:100DB000004C08BF49024CEA502040EA51207F3ADB
:100DC000C2BFD2F1FF0340EAC250704740F40000B6
:100DD0004FF00003013A5DDC12F1190FDCBF00F0A7
:100DE00000407047C2F10002410021FA02F1C2F155
:100DF000200200FA02FC5FEA310040F1000053EAF1
:100E00004C0308BF20EADC70704792F0000F00F03E
:100E1000004C02BF400010F4000F013AF9D040EA44
:100E20000C0093F0000F01F0004C02BF490011F4D8
:100E3000000F013BF9D041EA0C018FE70CEAD153D6
:100E400092EA0C0F18BF93EA0C0F0AD030F0004C56
:100E500018BF31F0004CD8D180EA010000F000400A
:100E6000704790F0000F17BF90F0004F084691F0C8
:100E7000000F91F0004F14D092EA0C0F01D1420202
:100E80000FD193EA0C0F03D14B0218BF084608D1CB
:100E900080EA010000F0004040F0FE4040F4000015
:100EA000704740F0FE4040F4400070474FF0FF0CA8
:100EB0001CEAD0521EBF1CEAD15392EA0C0F93EAEF
:100EC0000C0F69D0A2EB030280EA010C49024FEA41
:100ED000402037D04FF0805343EA111143EA1013FA
:100EE0000CF000408B4238BF5B0042F17D024FF4B2
:100EF000000C8B4224BF5B1A40EA0C00B3EB510F8D
:100F000024BFA3EB510340EA5C00B3EB910F24BF75
:100F1000A3EB910340EA9C00B3EBD10F24BFA3EBFA
:100F2000D10340EADC001B0118BF5FEA1C1CE0D1C2
:100F3000FD2A3FF650AF8B4240EBC25008BF20F075
:100F4000010070470CF0004C4CEA50207F32C2BFC9
:100F5000D2F1FF0340EAC250704740F400004FF066
:100F60000003013A37E792F0000F00F0004C02BF97
:100F7000400010F4000F013AF9D040EA0C0093F061
:100F8000000F01F0004C02BF490011F4000F013BBB
:100F9000F9D041EA0C0195E70CEAD15392EA0C0F23
:100FA00008D142027FF47DAF93EA0C0F7FF470AF5B
:100FB000084676E793EA0C0F04D14B023FF44CAF9E
:100FC00008466EE730F0004C18BF31F0004CCAD133
:100FD00030F000427FF45CAF31F000437FF43CAF6F
:100FE0005FE700BF4FF0FF3C06E000BF4FF0010C91
:100FF00002E000BF4FF0010C4DF804CD4FEA400273
:101000004FEA41037FEA226C18BF7FEA236C11D0BC
:1010100001B052EA530C18BF90EA010F58BFB2EB6F
:10102000030088BFC81738BF6FEAE17018BF40F0EF
:10103000010070477FEA226C02D15FEA402C05D1A3
:101040007FEA236CE4D15FEA412CE1D05DF8040B28
:10105000704700BF844608466146FFE70FB5FFF7BB
:10106000C9FF002848BF10F1000F0FBD4DF808ED73
:10107000FFF7F4FF0CBF012000205DF808FB00BF64
:101080004DF808EDFFF7EAFF34BF012000205DF8BE
:1010900008FB00BF4DF808EDFFF7E0FF94BF01200B
:1010A00000205DF808FB00BF4DF808EDFFF7D2FF08
:1010B00094BF012000205DF808FB00BF4DF808ED4B
:1010C000FFF7C8FF34BF012000205DF808FB00BF18
:1010D00042000ED2B2F1FE4F0BD34FF09E03B3EBA2
:1010E000126209D44FEA002343F0004323FA02F0CE
:1010F00070474FF00000704712F1610F01D14202BA
:1011000002D14FF0FF3070474FF00000704700BF32
:1011100007B501A800F006FC18B9019803B05DF806
:1011200004FB0020FAE707B50DF1060000F01AFCF9
:1011300020B9BDF8060003B05DF804FB0020FAE713
:1011400007B572200DF1060100F036FA18B1002043
:1011500003B05DF804FB73200DF1070100F02CFAD9
:101160000028F4D19DF806309DF8070040EA0320DE
:10117000EEE700F0D1BD000013B501A800F068FE55
:10118000044668B9012000F07FFC7920FFF7F1FFE9
:10119000FFF7BEFF044B1860FFF7C5FF034B188035
:1011A000204602B010BD00BF3402002030020020F3
:1011B000C82828BFC82001F09DB8000000B58DB038
:1011C0000DF1090301930DF10A03009308AA03AB83
:1011D00006A904A801F03AFB002835D1BDF80A3071
:1011E00019070BD5BDF91810184A1160BDF91A106E
:1011F000174A1160BDF91C10164A11605A0642BF09
:10120000154ABDF910101160990642BFBDF91210C0
:10121000124A1160DA0642BFBDF91410104A11607B
:10122000DB050BD50F4B089A1A600F4B099A1A6011
:101230000E4B0A9A1A600E4B0B9A1A600D4B039ACA
:101240001A600DB05DF804FB2020FAE73802002098
:101250003C020020400200204402002048020020FE
:101260004C02002054020020580200205C020020A2
:10127000600200206802002040F0010001F0FCB98B
:1012800038B504460D4601F02BF828BB61071DD583
:1012900024F010040120A4B201F0B4F9A30602D591
:1012A000012001F095F92046FFF7E6FFA0B9E8B26A
:1012B000C82828BFC820012838BF0120FFF778FFC1
:1012C00050B9BDE83840012000F0B8BFE206E5D5CE
:1012D000012001F0B4F9E1E7202038BD002370B50A
:1012E000012205460C4618469C4216DC2840FFF7B2
:1012F000D1FC06460220631E9840FFF7CFFC014652
:101300003046FFF7D3FD064645FA04F0FFF7C6FC6A
:1013100001463046FFF70EFC70BD02FA03F10843A8
:101320000133E1E7000000002DE9F74F844B1E2157
:1013300001901868FFF7D2FF824B80461E21186883
:10134000FFF7CCFF804B07461E211868FFF7C6FF4A
:101350007E4B05461E211868FFF7C0FF294606464A
:101360002846FFF7EFFC814631463046FFF7EAFC9E
:101370004946FFF7DFFB4FF04041FFF7E3FC4FF03A
:101380007E51FFF7D7FB294683463846FFF7DAFC44
:10139000314604464046FFF7D5FC01462046FFF79C
:1013A000C7FB0146FFF7C6FB314682463846FFF7CA
:1013B000C9FC294604464046FFF7C4FC01462046C6
:1013C000FFF7B8FB4FF04041FFF7BCFC3146044645
:1013D0002846FFF7B7FC394605464046FFF7B2FC02
:1013E00001462846FFF7A4FB0146FFF7A3FB394659
:1013F00005463846FFF7A6FC4946FFF79BFB4FF032
:101400004041FFF79FFC4FF07E51FFF793FB4FF0F9
:101410007E5106462046FFF751FE002840F08680A8
:1014200020464B49FFF72CFE002840F082802046E2
:10143000FEF7FAFF04F04EF802460B46FEF796FE62
:10144000FFF722FBDFF80C81C8F800003046FEF7FA
:10145000EBFF0F4606462846FEF7E6FF3B463246C0
:1014600004F060F8FFF710FB3B4F38605846FEF77A
:10147000DBFF04460D465046FEF7D6FF22462B46BC
:1014800004F050F8FFF700FBDFF8D0A0019B044602
:10149000CAF80000002B46D0D8F80000FEF7C4FFC1
:1014A00025A3D3E90023FFF717F8FFF7EDFA064667
:1014B000C8F800003868FEF7B7FF1FA3D3E9002380
:1014C000FFF70AF8FFF7E0FA386005462046FEF716
:1014D000ABFF19A3D3E90023FEF7FEFFFFF7D4FA11
:1014E00000210446CAF800003046FFF7C9FD28B1C4
:1014F00030461B49FFF71EFBC8F8000000212846B4
:10150000FFF7BEFD20B128461549FFF713FB3860F1
:1015100000212046FFF7B4FD28B120461049FFF70F
:1015200009FBCAF8000003B0BDE8F08F4FF07E540D
:101530007DE7074C7BE700BF775AF01ADCA54C40EB
:1015400054020020580200205C02002060020020AB
:10155000000080BF50020020640200206C020020C6
:101560000000B44313B5134C034694F8240090B123
:10157000002B18BF0223D4E900108DF80730012298
:10158000497C00780DF1070301F0C2FC68B14FF00F
:10159000FF3002B010BDA27A002AF8D0002BEAD0AA
:1015A000637C002BF5D10123E5E79DF807306374D8
:1015B000EFE700BF0000002010B40B4A0B46116893
:1015C0004C7B84420CD0097E814209D05468227938
:1015D000824205D901460122207810BC01F0BEBC30
:1015E0004FF0FF3010BC70470000002013B5584C7E
:1015F000A37A1BB94FF0FF3002B010BD0023D4E92D
:1016000000108DF807300122497C00780DF10703A6
:1016100001F07EFC0028EDD1D4E9001001224979C7
:1016200000780DF1070301F073FC0028E2D1D4E942
:1016300000100122097900780DF1070301F068FC20
:101640000028D7D1D4E90030197994F82430002B40
:1016500042D00C238DF80730012200780DF10703EA
:1016600001F056FC0028C5D1322001F0B2FBD4E9CC
:101670000010C0238DF80730A37A0122DB0744BF96
:10168000E0238DF80730097900780DF1070301F0A8
:101690003FFC0028AED1D4E90010637C0122002B6E
:1016A00018BF02238DF80730497C00780DF107033D
:1016B00001F02EFC00289DD10DF107038DF80700E5
:1016C000D4E9001001224979007801F021FC0038AA
:1016D00018BF012040428FE704238DF80730012214
:1016E00000780DF1070301F013FC002882D1A37CE0
:1016F00063BBA37A13F0010F0CBF40236023D4E92E
:1017000000108DF807300122097900780DF10703E8
:1017100001F0FEFB00287FF46DAF322001F059FB91
:10172000D4E90010637C0122003B18BF01238DF82F
:101730000730497C00780DF1070301F0E9FB002830
:101740007FF458AFD4E90010024BBBE74023D6E743
:10175000000000201000002013B51A4CA37A1BB91A
:101760004FF0FF3002B010BDB0F57A7F25D006D81B
:10177000FA2809D0B0F5FA7FF2D1082305E0B0F5D8
:10178000FA6FEDD1182300E000238DF807309DF8A3
:101790000720237AB3EBD20F11D0D4E90010012235
:1017A000897900780DF1070301F0B2FB0028D7D149
:1017B0009DF80730DB082372D4E71023E5E700200B
:1017C000D0E700BF000000200C4B5A7A032A12D841
:1017D000DFE802F0020B0D0F02220270DB7C13B176
:1017E00003785B000370002070470422F5E70822AD
:1017F000F3E71022F1E74FF0FF30704700000020C0
:1018000013B5184CA37A1BB94FF0FF3002B010BDCE
:10181000082823D005D8022807D00428F4D10823AB
:1018200004E01028F0D1182300E000238DF80730E1
:101830009DF80720637AB3EBD20F11D0D4E90010E2
:101840000122C97900780DF1070301F061FB00283E
:10185000DAD19DF80730DB086372D7E71023E5E79C
:101860000020D3E70000002013B5194CA37A1BB960
:101870004FF0FF3002B010BDBB2816D901238DF800
:101880000730E27A9DF807309A421FD0D4E9001061
:101890000122897800780DF1070301F039FB002857
:1018A000E6D19DF80730E372E4E7612801D902230D
:1018B000E5E7292801D90323E1E7132801D9042307
:1018C000DDE709288CBF05230623D8E70020D1E7F0
:1018D0000000002013B518B94FF0FF3002B010BD62
:1018E0000F4CE3898342F7D36428F5D8B3FBF0F3B8
:1018F000D4E90010013B8DF80730012291F8241043
:1019000000780DF1070301F003FB0028E4D19DF8F6
:101910000720E3890132B3FBF2F32385DEE700BF42
:10192000000000200A4B1B7A032B0DD8DFE803F0E0
:101930000206080A074B036000207047064BFAE7CF
:10194000064BF8E7064BF6E74FF0FF30704700BF55
:1019500000000020000003430000834233330342B1
:10196000333383410E4B5A7A032A16D8DFE802F04C
:10197000020C0F124FF480420280DB7C13B103880B
:101980005B080380002070474FF40052F4E74FF4E7
:101990008052F1E74FF40062EEE74FF0FF307047FE
:1019A00000000020F8B5114E96F82430E3B9B47A5F
:1019B0009CB100F0FE052C40307D377C3474641BF4
:1019C00018BF4FF0FF3428430AD00120FFF7CAFDAB
:1019D00045B1FFF70BFE28B137744FF0FF3401E03B
:1019E000FFF7C0FD2046F8BD0024FBE70000002003
:1019F0002DE9F341234F064697F8243088461546D3
:101A000023B94FF0FF3002B0BDE8F081BB7A002B64
:101A1000F7D0D7E900100222097B007801AB01F072
:101A20009DFA0028EDD1BDF8044062BA94B2A642F6
:101A300001D92870E5E778684388B4EB530F11D9D2
:101A400039680122C97C007801AB01F087FA0028CF
:101A5000D7D19DF80430DB0604D5FFF7C7FD6FF042
:101A60000100D0E7D7E900104346497B0078F2B285
:101A700001F074FA0028C4D1B4FBF6F4013C2C70D8
:101A8000C1E700BF0000002037B5384C0546A37CF5
:101A9000834269D0636801221878236819790DF1AF
:101AA00007036DB301F05AFA18B14FF0FF3003B0DD
:101AB00030BD9DF80730D4E9001023F020038DF8E5
:101AC00007300122097900780DF1070301F020FAAF
:101AD0000028EAD1032001F07CF902238DF80730B9
:101AE00094F8223013B182238DF8073094F8233014
:101AF00073B39DF8073043F030038DF8073027E0CB
:101B000001F02CFA0028D0D1D4E90010A27A9DF877
:101B10000730D2074CBF43F0200303F0DF038DF8FA
:101B200007300122097900780DF1070301F0F0F97F
:101B30000028BAD1032001F04CF994F8223094F82F
:101B40002320002B18BF80238DF80730002AD2D124
:101B5000D4E900100122C97D00780DF1070301F0DE
:101B6000D7F90028A1D1A5740020A0E7000000202B
:101B700037B5174C054694F82330834222D000280D
:101B80000CBF00233023A27C8DF807301AB143F03C
:101B900002038DF8073094F822302BB19DF80730FE
:101BA00063F07F038DF80730D4E900100122C97D6E
:101BB00000780DF1070301F0ABF928B984F8235040
:101BC00003B030BD0020FBE74FF0FF30F8E700BF67
:101BD00000000020282837B5044604D94FF0FF3410
:101BE000204603B030BD274D98B9FFF7C1FFD5E9B6
:101BF000001007238DF804408DF805300222497D3E
:101C0000007801AB01F084F904460028E6D128757C
:101C1000E6E70120FFF7ACFF012C22D10223D5E932
:101C200000108DF804300122497A007801AB01F0F0
:101C30006FF90028D2D1D5E9001020238DF80430A7
:101C40000122497D007801AB01F062F904460028C9
:101C5000C4D10823AB72012328732B75FFF7A2FEB2
:101C6000BEE7022C01D10323D9E7052C01D80423B8
:101C7000D5E70A2C01D80523D1E7142C94BF0623FD
:101C80000723CCE70000002073B5224E0446B37A48
:101C900023B94FF0FF34204602B070BD96F82450AF
:101CA000002DF6D1337D4BB1431E272B03D8FFF710
:101CB00091FF2C46EFE72846FFF78CFFD6E900108E
:101CC000B4F57A7F28BF4FF47A74042C38BF04240B
:101CD0004FF47A75B5FBF4F4013C8DF8074001220E
:101CE000497800780DF1070301F012F90446002845
:101CF000CFD19DF80730308D0133B5FBF3F5642863
:101D0000A8BF6420F581FFF7E5FDF0894008FFF7E3
:101D1000ABFDC0E70000002010F0700373B505466E
:101D200014D00123494C8DF80630D4E9001001226B
:101D3000497D00780DF1060301F0EAF850B1002367
:101D4000A3724FF0FF36304602B070BD0028E9D1D3
:101D50004023E7E79DF80630012223F04003237378
:101D60006B0656BF04238DF806008DF80630AE06CC
:101D70005EBF9DF8063043F002038DF80630E8069A
:101D80005EBF9DF8063043F001038DF80630290749
:101D900058BF9DF80630D4E900105CBF43F038030B
:101DA0008DF80630897D00780DF1060301F0B0F85A
:101DB0000028C4D115F0F70F01D0FFF7D9FED4E900
:101DC00000100122097900780DF1070301F0C6F82F
:101DD0000028B6D1EA074CBF112210229DF8073027
:101DE00047BF8DF8062043F0200323F020038DF831
:101DF000062094F824208DF807309DF807300AB3A8
:101E000043F080038DF80730D4E90010012291F8E7
:101E1000261000780DF1060301F07AF8002890D121
:101E2000D4E900100122097900780DF1070301F0CF
:101E30006FF80646002884D120753220A57200F084
:101E4000C8FF80E703F07F03DCE700BF000000204D
:101E50007FB58023A04C8DF80830D4E90010012212
:101E6000497D007802AB01F053F8054620B14FF0F0
:101E7000FF34204604B070BD642000F0AAFFD4E90E
:101E800000108DF808500122497D007802AB01F066
:101E90003FF80028EBD14823E0748DF80830D4E9EE
:101EA00000100122097A007802AB01F031F8002815
:101EB000DDD14FF6FF73E3812374FF230125A37463
:101EC0004FF0FF33A082C4F81600C4F81A00C4F81B
:101ED0001E006062A3604FF4FA6065842573238559
:101EE000FFF73AFC0028C2D10220FFF789FC002846
:101EF000BDD12A20FFF7B8FC0028B8D13220FFF767
:101F0000C3FE0028B3D1FFF74DFD0028AFD128460E
:101F1000FFF7BAFD0C2501220021284601AB01F094
:101F20001DF818B99DF80430482B0CD00135EDB2DE
:101F3000102DF0D10A20FFF7CDFC0446002896D1E1
:101F4000FFF7EAFE95E7102601220A21284601AB99
:101F500084F82A508DF8046000F0DAFF0028E9D1F7
:101F6000012000F036FF1F2301228DF804300A21E2
:101F700094F82A0001AB00F0CBFF0028DAD1012051
:101F800000F027FF0322314694F82A0001AB00F04D
:101F9000E5FF0028CED19DF8043001228033A385CF
:101FA0009DF805300A218033E3859DF8063094F8CA
:101FB0002A008033238601AB8DF8046000F0A8FF6F
:101FC00005460028B6D1012000F003FF2846FFF7A0
:101FD0005BFDD4E9001040238DF804300122897E96
:101FE000007801AB00F094FF0028A3D1D4E90010E1
:101FF00094F82A30012263F07F038DF80430897F42
:10200000007801AB00F084FF002893D1D4E90010E0
:1020100002238DF804300122C97F007801AB00F063
:1020200077FF002886D1D4E9001088238DF804308A
:10203000012291F82010007801AB00F069FF002820
:102040007FF478AFD4E9001094F82A3001228DF89B
:10205000043091F82110007801AB00F059FF0028FE
:102060007FF468AFD4E900100A238DF80430012210
:1020700091F82210007801AB00F04AFF00287FF4AD
:1020800059AFD4E9001081238DF80430012291F872
:102090002310007801AB00F03BFF00287FF44AAF2B
:1020A000D4E9001011238DF80430012291F8261094
:1020B000007801AB00F02CFF00287FF43BAFD4E99F
:1020C000001003238DF80430012291F8271001AB92
:1020D000007800F01DFF2DE700000020F7B50D4649
:1020E00016461AB94FF0FF3003B0F0BD124CA37A78
:1020F000002BF7D06768030A8DF80430C0B27B89E3
:102100008DF8050008449842ECDC21680222C97E63
:10211000387801AB00F0FCFE0028E3D1D4E90010D0
:102120003346097E0078EAB200F0F2FE003818BFAC
:1021300001204042D8E700BF00000020F7B50D465F
:1021400016461AB94FF0FF3003B0F0BD124CA37A17
:10215000002BF7D06768030A8DF80430C0B27B8982
:102160008DF8050008449842ECDC21680222C97E03
:10217000387801AB00F0CCFE0028E3D1D4E90010A0
:102180003346097E0078EAB200F0E8FE003818BF56
:1021900001204042D8E700BF000000202DE9F04FA9
:1021A000254D89B095F8254081468A46174601930A
:1021B00024B14FF0FF3009B0BDE8F08F0029F8D00E
:1021C0004C4514D33B0A8DF80C308DF80D70D5E9D1
:1021D00000100222497F007803AB00F099FE00282E
:1021E000E7D1012385F82530019BEB84E3E7A9EBD8
:1021F000040BBBF1100FA8BF4FF0100B0AEB040843
:102200001FFA8BF6424631462046FFF767FF00284B
:10221000CFD13146204604AAFFF790FF0028C8D14D
:102220003246404604A903F0BDFE10B93444A4B2BE
:10223000C6E76FF00100BEE70000002037B51D4D76
:10224000044695F8243083421ED000B395F825301B
:102250006BB300240020FFF785F90020FFF714FC82
:10226000E88CFFF711FD68688DF8074001222321F3
:1022700000780DF1070300F04BFE012085F82400E3
:10228000FFF770F9FFF7B2F9002003B030BDFFF798
:1022900069F92B7C68688DF80730012223210078CA
:1022A0000DF1070300F034FE85F82440EAE74FF013
:1022B000FF30EAE7000000201FB5084A01AB1068B4
:1022C0005168127A03C309211A704FF4976001AA6A
:1022D000FFF704FF05B05DF804FB00BF708A00083B
:1022E000C8234FF4806240F6F6300149FFF756BF2D
:1022F000918A000810B50446144A86B010685168E7
:1023000003AB03C39068C82C186003D94FF0FF30AB
:1023100006B010BD00238DF80430C823B3FBF4F3DE
:102320000221013B40F2162001AA8DF80530FFF78B
:10233000D5FE0028EAD10C2140F6C12003AAFFF700
:10234000CDFE0028E2D1024B9C81E1E77A8A0008A9
:102350007002002073B504460846610703D14FF0B0
:10236000FF3002B070BDB0F5C86FF8D8FEF792FC30
:102370004449FEF79BFD06460DF10300FFF724FAE2
:102380009DF80330082B60D00DD8022B17D0042BFA
:10239000E5D14FF08C413046FEF7D4FCFEF798FEB5
:1023A000394985B214E0102BD9D14FF08A4130461B
:1023B000FEF7C8FCFEF78CFE344985B208E04FF00A
:1023C0008D413046FEF7BEFCFEF782FE304985B2F5
:1023D0003046FEF7B7FCFEF77BFE2B0A80B28DF885
:1023E0000430E2074FEA10238DF805508DF80630CF
:1023F0008DF8070033D4A30710D502214FF4EC70F9
:1024000001AAFFF76BFE0028A9D102214FF49470B6
:102410000DF10602FFF762FE0028A0D114F00400BF
:102420009FD002214FF4EE7001AAFFF757FE00285B
:1024300095D102214FF496700DF10602FFF74EFE82
:10244000003818BF012040428BE74FF08B413046E7
:10245000FEF778FCFEF73CFE0E4985B2B8E7022194
:102460004FF4EA7001AAFFF739FE00287FF477AF36
:1024700002214FF492700DF10602FFF72FFE0028A3
:10248000B9D06CE7000048430000C0450000C044DC
:10249000000040460000404510F0010318BF302303
:1024A00007B582078DF8073048BF9DF807304FF019
:1024B000010144BF43F00C038DF80730430748BFC8
:1024C0009DF807300DF1070248BF43F003034FF4B6
:1024D000A47048BF8DF80730FFF700FE03B05DF829
:1024E00004FB042807B528BF0420012838BF0120B9
:1024F00001388DF8070001210DF1070240F24F105D
:10250000FFF7ECFD03B05DF804FB052307B5B0FB56
:10251000F3F00221030A8DF8050001AA4FF4EF70D1
:102520008DF80430FFF7DAFD03B05DF804FB0523F6
:1025300007B5B0FBF3F00221030A8DF8050001AAEC
:102540004FF4ED708DF80430FFF7C8FD03B05DF86F
:1025500004FB4FF47A7307B590FBF3F041430B167D
:102560008DF804300B148DF805308DF807100B1220
:1025700001AA04214FF4AE708DF80630FFF7AEFDCE
:1025800003B05DF804FB052307B5B0FBF3F00221AF
:10259000030A8DF8050001AA4FF4AD708DF80430E0
:1025A000FFF79CFD03B05DF804FB052307B5B0FB06
:1025B000F3F00221030A8DF8050001AA4FF4AC7074
:1025C0008DF80430FFF78AFD03B05DF804FB0000CE
:1025D0001FB520B105B05DF804EBFFF76DBE084AEA
:1025E00001AB10685168127A03C309211A704FF4C5
:1025F000976001AAFFF772FD05B05DF804FB00BF0C
:10260000878A000807B5B0B1C0238DF80430C22313
:102610008DF80530C4238DF80630C6238DF80730B9
:10262000042101AA40F69820FFF758FDFEF7DEFFCF
:1026300003B05DF804FB4FF08B330193F0E707B56F
:10264000B0B120238DF8043028238DF805303023D5
:102650008DF8063038238DF80730042101AA40F6A2
:102660009E20FFF73BFDFEF7C1FF03B05DF804FBC2
:102670004FF0A3330193F0E72DE9FF4102238DF8DA
:102680000430CA238DF80530E3238DF80630092382
:102690000446042101AA68208DF80730FFF71EFDCB
:1026A000A32314F040088DF804301FBFC0238DF819
:1026B0000530C8238DF8063012BFC2238DF80530CF
:1026C0008DF8063014F4C0768DF807301DBFC42392
:1026D0008DF80830CC23A32319BF8DF80930C62309
:1026E0008DF808308DF809308DF80A30A3230A21BF
:1026F00001AA40F6A7208DF80B308DF80C308DF82C
:102700000D30FFF7EBFC14F003070CBFD823202398
:10271000012140F6B62001AA8DF80430FFF7DEFC57
:1027200014F0200072D0FFF7C7FD9EB1E20570D50E
:10273000B2238DF804308B238DF80530B6238DF845
:1027400006309B23042140F6A22001AA8DF8073011
:10275000FFF7C4FCE30767D5F82301AA01214FF472
:102760000B608DF80430FFF7B9FCFA210720FFF762
:10277000F1FD0720FFF790FE0120FFF7B2FE642075
:10278000FFF7C3FE4FF4FA70FFF7D1FEC8212D48C2
:10279000FFF7DFFE2820FFF7F6FE0A20FFF705FF10
:1027A00014F0020F0CBFD823D923012101AA40F253
:1027B0003D708DF80430FFF791FC14F0040018BF51
:1027C0000120FFF71FFF14F0100018BF01201E4D5D
:1027D000FFF735FF44F008036B81FEF707FFB8F100
:1027E000000F2BD185F80E8016B1AB7B0633AB738F
:1027F00014F0140F1EBFAB7B1033AB7317B1AB7B60
:102800000433AB73002004B0BDE8F081FFF7E0FEB5
:102810008BE7B0238DF8043080238DF80530B42386
:102820008DF8063090238DE7D823012101AA4FF4BB
:102830000B608DF80430FFF751FCB1E70623AB7352
:10284000D2E700BF09E3CA02700200202DE9F04F71
:102850009946002389B0129EDFF89CA1074688465E
:1028600093466946139A9AF80E003380FFF7C0F832
:10287000054650BBBAF80A3013F0140F00F0B980C7
:10288000019900980CBA4FEA244C0CFB0CFC00BADE
:10289000CBF80000001400FB00CC0299039A09BA9F
:1028A000CBF80810091401FB01C112BACBF80C20B7
:1028B000121402FB021202F17142B2F1007FCBF856
:1028C000044005D9FEF792FE35804FF0FF358CE0CD
:1028D000328842F4807232801022580634D502F1D8
:1028E0002001694411F8200C511CC9B220316944FF
:1028F00011F8201C41EA0021A8F80010911CC9B26F
:102900002031694411F8200CD11CC9B2203169442E
:1029100011F8201C41EA0021A8F80210111DC9B2CB
:102920002031694411F8200C511DC9B2203169448D
:1029300011F8201C063241EA0021A8F80410318861
:10294000D2B241F00801318013F4C07F31D002F1DE
:102950002001694411F8200C511CC9B2203169448E
:1029600011F8201C41EA00213980911CC9B22031A4
:10297000694411F8200CD11CC9B22031694411F806
:10298000201C41EA00217980111DC9B2203169441F
:1029900011F8200C511DC9B22031694411F8201CD6
:1029A000063241EA0021B9803188D2B241F070018B
:1029B0003180990716D00DEB02046378E678DA07C8
:1029C00008D5DAF800302BB106F007010131C6F363
:1029D000C200984763781B0704D5DAF804300BB1BE
:1029E000B0099847484600F0EDF9284609B0BDE81F
:1029F000F08F024671E700BF700200201FB5044649
:102A000002F0ECFC0828236809D850B101380728E7
:102A100007D8DFE800F01922062A06060632102839
:102A200033D01B4A93420DD101221A4B1A491A7016
:102A30001A48642202F020FD194B1A68136823F02B
:102A40000403136004B010BD0022009219680091C5
:102A50005968009100996264E3E7002201921968C5
:102A60000191596801910199F5E7002202921968D4
:102A70000291596802910299EDE7002203921968C8
:102A80000391596803910399E5E70022E3E700BF4A
:102A900000380140B4030020B50300206C0300207F
:102AA000D402002008B50268094B9A420FD10122D6
:102AB000084B09481A70094B64221980084902F032
:102AC000DBFC084B1A68136823F00403136008BD8D
:102AD00000380140B40300206C030020A80200204D
:102AE000B5030020D402002008B50021054B064A9A
:102AF00000F07EFD08B172B6FEE70122034B1A70AA
:102B000008BD00BF810200208C020020800200204E
:102B10000222014B1A7070478002002010B590B05D
:102B20001422002108A803F05BFA1422002101A856
:102B300003F056FA02244FF480330122CDE90D430D
:102B4000CDE906234FF4E01306A80A920F9301F093
:102B500073FE08B172B6FEE70F23CDE901344FF4DE
:102B600080630390CDE90430214601A802F026F8E5
:102B700008B172B6FEE710B010BD000080B5814C00
:102B800090B000F0E7FBFFF7C9FF1022002106A874
:102B900003F026FAA369012243F01003A361A3699D
:102BA0004FF4005103F010030293029BA36976488F
:102BB00043F02003A361A369002503F020030393DE
:102BC000039BA369012643F00803A361A3690227BD
:102BD00003F008030493049BA36943F00403A36177
:102BE000A36903F004030593059B01F0B7F90022E4
:102BF0000121664801F0B2F94FF40053624806A97A
:102C0000CDE90636CDE9085701F05AF85F4806A924
:102C1000CDE90666CDE9085701F052F863692A4606
:102C2000334363616369294633400F200193019B5D
:102C300000F086FE0F2000F0B5FE4FF4E133544C57
:102C4000DFF850E12046C4E900E30C23C4E9025553
:102C5000C4E905352561E56102F00AF908B172B6EB
:102C6000FEE704234C4D4D4F4FF4602CC5E9007333
:102C70004FF48013C5E90200A861A8832846C5E97E
:102C800004C300F09DFB08B172B6FEE7CDE90B006E
:102C9000CDE90600CDE908000A9006A928460D9660
:102CA0000E9600F008FC08B172B6FEE7284600F068
:102CB00071FC08B172B6FEE748F60241284600F002
:102CC00013FD034608B172B6FEE73548354A36496A
:102CD000C0E90233C0E900124FF48042C0E9063374
:102CE000C0E90423036201F061FA08B172B6FEE79D
:102CF00064222E49204602F0BFFB2D4B2D491A6855
:102D00002046136823F0040313604FF0FF330722BB
:102D100002F0DDF8FEF730FAE8B1274E1A4D4FF019
:102D2000FF3331460722204602F0D1F800224FF44B
:102D30000051284601F012F94FF4FA7000F02EFB12
:102D4000284601224FF4005101F008F940F2DC500E
:102D500000F024FBE3E719494FF0FF330722204638
:102D600002F0B5F80A213020FEF78AFAFEF7E8F9FA
:102D70000028FBD0FEF722FA0028F7D10120FEF749
:102D8000D3FAF3E70010024000100140000C0140AC
:102D90006C03002000380140AC02002000640040B9
:102DA00018030020A086010000540040B503002055
:102DB000D4020020879600088F9600089796000896
:102DC00072B6FEE710B5044600F0E2FA206000207B
:102DD00010BD08B500F0E2FA002008BD2DE9F04171
:102DE00006460F4600F0D4FA01240546DFF8248099
:102DF0003146404601F0ACF8B84200D00CB9BDE80D
:102E0000F08100F0C5FA441B0A2C8CBF0024012479
:102E100000BFEDE7000C01402DE9FF413A4F40268D
:102E20003A68384613684FF0000823F00103136036
:102E300001F064FA11238025344C69462046CDE91F
:102E40000138009600F03CFF69462046009500F0EE
:102E500037FF29462046012201F080F80122314641
:102E6000204601F07BF830460121FFF7B7FF2846E6
:102E70000121FFF7B3FF42462946204601F06EF8D4
:102E800041462846FFF7AAFF42463146204601F058
:102E900065F841463046FFF7A1FF01223146204642
:102EA00001F05CF830460121FFF798FF0122294626
:102EB000204601F053F828460121FFF78FFF122327
:102EC00069462046CDE9006300F0FAFE69462046D7
:102ED000009500F0F5FE3A68136843F40043136070
:102EE00000BF3A68136823F40043136000BF3A68D8
:102EF000136843F00103136000BF384601F056F930
:102F000004B0BDE8F08100BF18030020000C0140B0
:102F1000F0B5054602F1080083B000F4FC7002AF82
:102F2000ADEB000D8DF808100DF10900194614469F
:102F300003F048F8FF2302AE00933246631C0648B4
:102F4000690001F0F5F9044608B1FFF765FF204676
:102F50000437BD46F0BD00BF180300202DE9FF4136
:102F60004FF0FF0845008DF80F1017461E46294602
:102F700001230D48CDF800800DF10F0201F0D8F9C2
:102F8000044610B1FFF748FF0AE03B4632462946A7
:102F90000548CDF8008001F0A3FA04460028F1D1DD
:102FA000204604B0BDE8F081180300200E4B82B02B
:102FB0009A6942F001029A619A6902F00102009254
:102FC000009ADA6942F08052DA61DB69074A03F05D
:102FD00080530193019B536823F0E06343F0007337
:102FE000536002B0704700BF001002400000014073
:102FF00010B5044686B01022002102A802F0F0FFAE
:1030000022681D4B9A4235D103F5D633DA691B4845
:1030100042F00072DA61DA6902A902F000720092ED
:10302000009A9A6942F004029A619B6903F00403D2
:103030000193019B4FF40063029300F041FE4FF4B3
:1030400080520223CDE9022303230C4802A90593F1
:1030500000F036FE00221420114600F071FC14200E
:1030600000F0A0FC00221620114600F069FC16209A
:1030700000F098FC06B010BD00640040000801405C
:1030800010B5044686B01022002102A802F0A8FF65
:103090002268114B9A421CD1104CC022A3691048DF
:1030A00043F00803A361A36902A903F00803009396
:1030B000009B1223CDE902230323059300F000FEB9
:1030C000E36943F40013E361E36903F4001301933C
:1030D000019B06B010BD00BF00540040001002402C
:1030E000000C014008B50268094B9A420ED1094A0A
:1030F0004021D369084823F40013D36100F0BAFEDD
:10310000BDE808408021044800F0B4BE08BD00BFFF
:103110000054004000100240000C014070B506460B
:1031200086B01022002102A802F05AFF3268244B18
:103130009A4243D103F558439A69224842F48042A7
:103140009A619A6902A902F480420092009A9A69EF
:10315000002542F004029A619B694FF4007203F06B
:1031600004030193019B0223CDE90223032305936A
:1031700000F0A6FD4FF48063124802A9124CCDE97D
:103180000235049500F09CFD104B2046C4E9003543
:103190008023C4E90555C4E90335A560E56100F065
:1031A00023FC08B1FFF70CFE002225201146F46332
:1031B000666200F0C5FB252000F0F4FB06B070BD90
:1031C0000038014000080140D402002058000240AD
:1031D000FEE7FEE7FEE7FEE7FEE770477047704751
:1031E00000F0CAB8014800F0D7BC00BFD4020020EC
:1031F000014800F095BA00BFAC020020FFF7F8BF0D
:10320000014801F099BF00BF6C0300200120704706
:1032100008B502F09DFE162303604FF0FF3008BD95
:1032200008B502F095FE16230360FEE770B50D4663
:1032300014460E46731B9C4201DC204670BDAFF362
:10324000008006F8010BF5E770B50D4614460E46F2
:10325000731B9C4201DC204670BD16F8010BAFF3D6
:103260000080F5E74FF0FF3070474FF40053002027
:103270004B60704701207047002070470B4A03469F
:10328000116810B509B90A491160106809490A4C5A
:103290000344091B8B4206D902F05AFE0C2303603B
:1032A0004FF0FF3010BD1360FCE700BF1C0400208E
:1032B0003804002000500020000400007047000087
:1032C000FFF7FCFF0B480C490C4A002302E0D458DE
:1032D000C4500433C4188C42F9D3094A094C002362
:1032E00001E013600432A242FBD302F037FEFFF785
:1032F00045FC70470000002014020020249B0008B9
:103300001402002034040020FEE7000038B50E4B04
:10331000054618784FF47A73B3FBF0F30B4A106844
:10332000B0FBF3F000F04CFB044658B90F2D09D860
:10333000024629464FF0FF3000F002FB2046044BC6
:103340001D6038BD0120FCE73C0000203800002053
:1033500040000020074A08B51368032043F010031B
:10336000136000F0DBFA0F20FFF7D0FFFFF71EFE1F
:10337000002008BD00200240034A044B11681B785E
:103380000B441360704700BF200400203C00002065
:10339000014B1868704700BF2004002038B5044670
:1033A000FFF7F6FF0546631C1EBF044B1B78E418AD
:1033B000FFF7EEFF431BA342FAD338BD3C000020C9
:1033C00038B5044600286ED090F820300BB9FFF7CE
:1033D0000FFE2268136843F001031360FFF7D8FF64
:1033E000054623685A68D10751D51A6822F00202AF
:1033F0001A60FFF7CDFF054623685A68920754D438
:10340000227E0020012A1A680CBF42F0800222F0BE
:1034100080021A60627E012A1A680CBF42F04002E4
:1034200022F040021A60A27E012A1A680CBF42F004
:10343000200222F020021A60E27E012A1A680CBFE4
:1034400022F0100242F010021A60227F012A1A684C
:103450000CBF42F0080222F008021A60627F012AC3
:103460001A680CBF42F0040222F004021A60D4E988
:1034700002210A4321690A4361690A4361680139EB
:103480000A43DA610123606284F8203038BDFFF717
:103490007FFF401B0A28A4D9636A43F400336362A8
:1034A000052384F820300120F0E7FFF771FF401B6F
:1034B0000A28A1D9F0E770B590F82030013B012B24
:1034C00062D801240368D3F8002242F00102C3F855
:1034D00000224A69D3F81C5202F01F0004FA00F0DF
:1034E00025EA0005C3F81C52CD69C44385BBD3F857
:1034F0000C52CE682540C3F80C528D8803EBC202F3
:1035000045EA0645C2F840528E680D8845EA0645F0
:10351000C2F844528A696ABBD3F804222240C3F835
:1035200004220A6952BBD3F814221440C3F814428F
:103530000A6A012A02BFD3F81C221043C3F81C02F6
:103540000020D3F8002222F00102C3F8002270BD4F
:10355000012DDFD1D3F80C520E680543C3F80C528D
:103560008D8803EBC20245EA0645C2F840528E68D8
:103570008D89CBE7D3F804220243D0E7D3F8142295
:103580000243C3F81422D3E7436A43F4802343621F
:103590000120DCE770B590F820300446012BDDB245
:1035A00020D10223026880F82030136823F0010341
:1035B0001360FFF7EDFE064623685B6813F0010316
:1035C00002D11D4663620BE0FFF7E2FE801B0A2872
:1035D000F2D9636A43F400336362052384F8203030
:1035E000284670BD436A012543F400234362F7E790
:1035F000F0B590F82040013C012C71D8066841B923
:10360000F468A40707D1436A43F40013436201201E
:103610005BE03469F5E706EB0115D5F8B0710C01F4
:1036200007F004079760002F50D1D5F8B0717F0DD7
:103630001760D5F8B071264407F00207D760D5F8B7
:10364000B4713F074EBF0827D5F8B47107F00F07D4
:103650001761D5F8B471D5F8B451C7F307272D0C0D
:1036600097615561D6F8B8211A7002682244D2F8E1
:10367000B821120A5A7002682244D2F8B821120CFA
:103680009A7002682244D2F8B821120EDA700268E9
:103690002244D2F8BC211A7102682244D2F8BC211B
:1036A000120A5A7102682244D2F8BC21120C9A7193
:1036B00002682244D2F8BC21120EDA71036851B9B3
:1036C000DA6842F02002DA600020F0BDD5F8B0716F
:1036D000FF085760ADE71A6942F020021A61F3E76C
:1036E000436A43F4802391E790F82030013B012B9B
:1036F00005D8026800205369194351617047436A35
:1037000043F480234362012070477047704770473D
:1037100070477047704770477047704770477047F1
:103720002DE9F84F036805465E69D3F8049016F05A
:1037300001049F68D3F80CB0D3F810A0D3F8188018
:1037400022D017F0010407D00122B9079A6040F196
:10375000A580FFF7DAFF0024FB0509D54FF480723E
:103760002B68B8059A6040F1A7802846FFF7CEFF86
:10377000FB0309D54FF480322B68B8039A6040F1FF
:10378000A9802846FFF7C3FF330707D51BF0100FAA
:103790001FBF10222B6844F40074DA60770708D545
:1037A0001BF0080F05D008222B682846DA60FFF7C7
:1037B000B2FFB00706D52B68DB68990702D0284610
:1037C000FFF792F9720607D51AF0100F1FBF1022EB
:1037D0002B6844F480641A61B30608D51AF0080F08
:1037E00005D008222B6828461A61FFF796FFF706D6
:1037F00006D52B681B69980702D02846FFF78CFF77
:10380000B10308D519F0100F05D010222B682846F7
:103810005A60FFF783FFF20308D519F0080F05D0AF
:1038200008222B6828465A60FFF779FF33042CD50D
:1038300019F0040F2A6826D0F70504D518F0010FF7
:1038400018BF44F00104B00504D518F0020F18BFEA
:1038500044F00204710504D518F0040F18BF44F0B9
:10386000040433050FD518F070030CD0402B4FD053
:103870003ED8202B46D0302B47D0102B3FD0936919
:1038800023F070039361042353602CB16B6A2846C4
:103890001C436C62FFF73CF9BDE8F88F7A0705D44A
:1038A00017F0080405D1FFF733FF55E74FF4006424
:1038B00052E74FF480544FE7790502D544F40054A1
:1038C00056E73A0502D544F4804451E72846FFF70D
:1038D00020FF4DE7790302D544F4004454E73A034E
:1038E00002D544F480344FE72846FFF713FF4BE737
:1038F000502B10D0602BC2D144F48074BFE744F049
:103900000804BCE744F01004B9E744F02004B6E72B
:1039100044F04004B3E744F08004B0E707490302F1
:10392000CA6803F4E06322F4E0621204120C134349
:1039300043F0BF6343F40033CB60704700ED00E019
:10394000164B30B5DC68C4F30224C4F10703251D0F
:10395000042B28BF0423062D4FF0FF3598BF002409
:1039600005FA03F388BF033C21EA0303A34005FAE9
:1039700004F422EA0402002843EA0203ACBF00F187
:103980006040074A4FEA0313DBB2ABBF00F561406A
:1039900000F00F0080F80033135430BD00ED00E05C
:1039A00014ED00E0002808DB0123420900F01F00AD
:1039B00003FA00F0014B43F82200704700E100E0F9
:1039C0000138B0F1807F0BD24FF0E023F021054A9F
:1039D000586182F823100020072298611A6170470D
:1039E0000120704700ED00E010B548B314220168D3
:1039F000144B0B44B3FBF2F39B000364124BC36301
:103A0000022380F82130D0E901342343C4680A68D6
:103A10002343046922F47F522343446922F0300295
:103A2000234384692343C469234313430B60012266
:103A30000023836380F8203080F82120184610BDD1
:103A40000120FCE7F8FFFDBF00000240F0B590F850
:103A50002040012C34D0012480F8204090F82140EF
:103A60000026012CE5B24FF0020427D180F8214056
:103A700004688663266826F001062660D0E90F6791
:103A8000BD40756063604368102BC36A0BBFA260C2
:103A9000A160E160E2604BB1236843F00E030020B7
:103AA0002360236843F001032360F0BD236823F003
:103AB00004032360236843F00A03F0E780F82060E2
:103AC0000220F2E790F82130022B06D00423836312
:103AD000002380F82030012070470368C16B1A680A
:103AE00022F00E021A601A6822F001021A60012206
:103AF000036C02FA03F34B60002380F8212080F866
:103B0000203018467047000010B590F82130022B85
:103B100003D004238363012010BD03681A6822F0D8
:103B20000E021A601A6822F001021A60184A9342C3
:103B30001FD0143293421ED0143293421DD014323F
:103B400093421DD0143293421DD0143293420CBFC5
:103B50004FF480134FF080730E4A0024536001230A
:103B600080F82130436B80F820407BB19847204695
:103B7000D2E70123F0E71023EEE74FF48073EBE781
:103B80004FF48053E8E74FF48033E5E71846C3E786
:103B9000080002400000024070B40425C66B026CAD
:103BA0003468036895402542196832D04D0730D5F6
:103BB0001A6896065EBF1A6822F004021A603E4A2E
:103BC000934219D01432934218D01432934217D032
:103BD0001432934217D01432934217D014329342C6
:103BE0000CBF4FF480034FF08063344A5360C36AC4
:103BF000002B5ED070BC18470423F6E74023F4E79F
:103C00004FF48063F1E74FF48043EEE74FF48023F5
:103C1000EBE702259540254235D08D0733D51A684C
:103C2000940606D41A6822F00A021A60012280F86B
:103C30002120214A934219D01432934218D01432D1
:103C4000934217D01432934217D01432934217D0B4
:103C5000143293420CBF4FF400134FF00073174A15
:103C60005360002380F82030836AC1E70223F6E71F
:103C70002023F4E74FF40073F1E74FF40053EEE72D
:103C80004FF40033EBE708259540254211D0090792
:103C90000FD5196821F00E011960012303FA02F211
:103CA0007260836380F82130002380F82030036B3A
:103CB0009EE770BC704700BF080002400000024051
:103CC0002DE9F74F00221646644F654BDFF894C18B
:103CD000DFF894E10D6835FA06F402D103B0BDE8CF
:103CE000F08F4FF0010808FA06F805EA080438EAF0
:103CF00005057BD14D68032D07D8013D022D00F24B
:103D00008880DFE805F0969BA100122D00F09980D5
:103D10006ED8112D00F08F80FF2C98BF82464FF097
:103D20000F0988BF00F1040A4FEA8605DAF800801F
:103D300088BF203D09FA05FB28EA0B0802FA05F5C1
:103D400048EA0505CAF80050D1F804A01AF0805FCF
:103D50004CD0BD6926F0030845F00105BD61BD6981
:103D600008F1804805F00105019508F5803806F056
:103D7000030B019D4FEA8B0BD8F8085009FA0BF999
:103D800025EA0909394DA84262D005F58065A842A7
:103D900060D005F58065A8425ED005F58065A84233
:103DA0000CBF0325042505FA0BF545EA0905C8F8FB
:103DB00008509D681AF4801F14BF2543A5439D60D9
:103DC000DD681AF4001F14BF2543A543DD605D685C
:103DD0001AF4003F14BF2543A5435D601D681AF423
:103DE000803F14BF2C4325EA04041C60013671E7B0
:103DF000DFF87C904D450CD017D8A9F580194D45BA
:103E000007D009F570294D4503D0A9F580194D4516
:103E100082D18A68D2B1012A08BFC0F810804FF061
:103E2000080218BFC0F8148076E76545F1D07545E3
:103E3000EEE7CA6870E7CA6804326DE7CA680832FC
:103E40006AE7CA680C3267E7002265E7042263E785
:103E50000025A8E70125A6E70225A4E700100240F7
:103E60000004014000003110000032100008014041
:103E7000000022102DE9F74F4FF0040B00224FF005
:103E8000010A4FF00F0800EB0B0301932E4B31FAA0
:103E900002F402D103B0BDE8F08F0AFA02F70F4036
:103EA00049D022F0030404F1804404F5803402F088
:103EB000030CA5684FEA8C0C08FA0CF909EA050E08
:103EC000224DA84239D005F58065A84237D005F5C6
:103ED0008065A84235D005F58065A8420CBF032552
:103EE000042505FA0CF575456FEA07060FD11D6824
:103EF00035401D605D6835405D60DD683540DD60E2
:103F00009D6835409D60A56825EA0905A560FF2FDD
:103F100094BF0746019F4FEA82043D6888BF203C5A
:103F200008FA04FC25EA0C050BFA04F425433D606D
:103F3000C4682640C6600132A9E70025D1E7012503
:103F4000CFE70225CDE700BF000401400008014093
:103F50008368194214BF0120002070470AB1016133
:103F600070470904FBE7016800224B6913F4806382
:103F700010D06FF480634B612023026380F83D30E2
:103F800080F83E20036C80F83C2043F00403036477
:103F900001207047184670472DE9F84606460F463F
:103FA00091461D464FEA114A3368BAF1010F0CBF22
:103FB0005C699C6927EA0404A4B2B4FA84F4640935
:103FC000A14501D0002025E06A1CEED0FFF7E0F902
:103FD000089BC01AA84201D8002DE5D13368BAF178
:103FE000010F0CBF5B699B6927EA03039BB2B3FA1D
:103FF00083F35B099945D7D1002320220120336345
:1040000086F83D2086F83E30326C86F83C3042F02F
:1040100020023264BDE8F8862DE9F04104460F46DF
:10402000164698462568686927EA000080B2B8B14C
:104030006B695A0516D52B68202243F400732B6058
:104040006FF480636B610023236384F83D2084F860
:104050003E30226C42F004020120226484F83C309D
:10406000BDE8F081731CDED0FFF792F9A0EB0800E9
:10407000B04201D8002ED5D123685A6927EA02023E
:1040800092B2002ACED000232022236384F83D2060
:1040900084F83E30226C42F02002DDE770B5044621
:1040A0000D46164623685B691B0601D5002070BDCE
:1040B0002046FFF758FFC8B96A1CF3D0FFF768F92C
:1040C000801BA84201D8002DECD123685B6913F056
:1040D0008003E7D12022236384F83D2084F83E301A
:1040E000226C84F83C3042F0200222640120DEE79A
:1040F00070B504460D46164623685B695B0701D51B
:10410000002070BD2046FFF72EFFC8B96A1CF3D00F
:10411000FFF73EF9801BA84201D8002DECD123689F
:104120005B6913F00403E7D12022236384F83D2068
:1041300084F83E30226C84F83C3042F02002226445
:104140000120DEE770B504460D46164621684B692E
:1041500013F0400301D0002010E04A69D2060ED5CA
:104160006FF010024A612022236384F83D2084F816
:104170003E30226C0120226484F83C3070BDFFF791
:1041800007F9801BA84201D8002DDFD123685B69A5
:1041900013F04003DAD12022236384F83D2084F811
:1041A0003E30226C42F02002E4E7000070B5044685
:1041B00008B9012070BD90F83D3003F0FF021BB933
:1041C00080F83C20FEF75CFF242384F83D30236810
:1041D0001A6822F001021A601A6842F400421A605A
:1041E0001A6822F400421A6000F084FD3F4A6368B6
:1041F000934294BF3E4A3F4A90428CBF0022012224
:10420000002AD6D1394E3C49B342B0FBF1F188BF08
:104210004FF49676226800F1FF30556825F03F058F
:1042200045EA010582BF71434FF47A76B1FBF6F19E
:104230005560156A013125F03F0529431162D169A6
:104240002A4D21F44F41AB4221F0FF0132D85B00EF
:10425000B0FBF3F0431C40F6FC70034242D0C3F3C2
:104260000B030B43D3611168D4E9073021F0C0017F
:1042700003430B4313609168D4E9030321F4034122
:10428000034321F0FF010B439360D168D4E905306B
:1042900021F0FF0103430B43D3601368002043F078
:1042A000010313602023206484F83D30206384F8E8
:1042B0003E007FE7A56855B903EB4303B0FBF3F37A
:1042C0000133C3F30B037BB143F40043C9E7192562
:1042D0006B43B0FBF3F30133C3F30B0323B143F49C
:1042E0004043BEE70423BCE70123BAE7A0860100F0
:1042F0007F841E00FF083D0040420F0010B50446B9
:1043000098B12423026880F83D30136823F001033C
:104310001360FEF7E7FE0020206484F83C0084F878
:104320003D00206384F83E0010BD0120FCE7000042
:104330002DE9F043044685B098460D4691460C9F02
:10434000FFF726F894F83D300646202B04D00225CE
:10435000284605B0BDE8F0830090192301222046CD
:104360005B49FFF719FE0028F1D194F83C30012B8E
:10437000EDD00123216884F83C300B68DA075EBF7A
:104380000B6843F001030B600B6823F400630B60C0
:10439000212384F83D30102384F83E300023236429
:1043A000A4F82A80638DC4F824902385494BE362E6
:1043B000E36A082B04D0012B02D013F5803F04D10F
:1043C0000B6843F480730B6002E0236B122BF7D071
:1043D00000223B464FF0011120460096FFF7DCFD1E
:1043E000226838B11368DB0544BF4FF400732364BF
:1043F0000125ADE72369B3F5804F21D105F0FE0516
:10440000156133463A4620463349FFF705FE054617
:104410000028EDD1236803905A6903929B690393A6
:10442000039B238DF3B921680A6842F400720A6085
:10443000202284F83C3084F83D2084F83E3087E721
:10444000EB1103F0060343F0F003136120463346FB
:104450003A462249FFF7E0FD0028C9D12368EDB2B2
:104460001D61CEE7324639462046FFF717FE40B1C0
:10447000236C042BBCD12268136843F400731360CF
:10448000B6E7636A20681A4612F8011B016162628E
:10449000628D013A92B26285228DD0F814C0511E0D
:1044A00089B21CF0040F21850AD049B15978023332
:1044B00001616362638D023A013B9BB26385228591
:1044C000324639462046FFF713FE0028A9D0CFE731
:1044D000020010000000FFFF0200010008000100C0
:1044E0002DE9F04398460023044689B002930D4617
:1044F0009146109FFEF74CFF94F83D300646202B66
:1045000004D00225284609B0BDE8F08300901923A5
:10451000012220468F49FFF73FFD0028F1D194F892
:104520003C30012BEDD00123216884F83C300B682E
:10453000DB075EBF0B6843F001030B600B6823F4DD
:1045400000630B60222384F83D30102384F83E3052
:1045500000232364A4F82A80638DC4F82490238563
:104560007D4BE362E36A0A68082B42F480620A60CA
:1045700004D0012B02D013F5803F04D10B6843F423
:1045800080730B6002E0236B112BF7D03B460022B7
:104590004FF0011120460096FFF7FEFC236838B16A
:1045A0001B68D80502D54FF4007323640125A9E7E1
:1045B0002269B2F5804F29D145F00105EDB21D61A8
:1045C00033463A4620466549FFF726FD0546002852
:1045D000ECD1228D2368002A4DD103905A690392B1
:1045E0009A690392039A1A6842F400721A60DFF81B
:1045F0007081DFF87091238D002B6CD1202284F81C
:104600003C3084F83D2084F83E307BE74FEAE518E3
:1046100008F0060848F0F0021A61204633463A4690
:104620005149FFF7F9FC0028C0D12368EDB23A46A2
:104630001D61204633464949FFF7EEFC024600283B
:10464000B4D1236807905969204607919969079169
:104650000799196841F4807119603B464FF00111C8
:104660000096FFF799FC226808B1136899E748F0B3
:10467000F1031361A4E7012A11D11A6822F48062C0
:104680001A6072B6236804905A6904929A69049277
:10469000049A1A6842F400721A6062B6A7E7022A06
:1046A0001A680ED142F400621A6072B6236805904F
:1046B0005A6905929A690592059A1A6822F48062ED
:1046C000EAE742F480621A6006905A6906929B6992
:1046D0000693069B8BE7032B00F28880012B16D1F3
:1046E000324639462046FFF72DFD00287FF45EAFA5
:1046F00023681A69636A1A70636A01336362238DDF
:10470000013B2385638D013B9BB2638573E7022BDD
:104710004FF000023B4641462046009626D1FFF767
:104720003BFC00287FF442AF72B623681A6842F45B
:1047300000721A601A69636A1A70636A01336362ED
:10474000238D013B2385638D013B9BB2638562B65C
:10475000CEE700BF020010000000FFFF02000100D2
:10476000040001003800002008000100FFF714FCDD
:1047700000287FF41BAF2268136823F48063136062
:1047800072B646F2A81123681A69636A1A70626ADF
:10479000531C6362238D013B2385638D013B9BB2D8
:1047A0006385D9F80030B3FBF1F323214B43029327
:1047B000029B013B0293029B6BB92022236384F886
:1047C0003D2084F83E30226C42F02002226462B622
:1047D00084F83C30EAE6236859694907E8D5196846
:1047E00041F4007119601B695370A6E732463946DF
:1047F0002046FFF7A7FC00287FF4D8AE23681A698B
:10480000636A1A70628D616A013A92B24B1C6285CA
:1048100022686362238D5069013B9BB24007238568
:104820007FF5E9AE032B02BF136823F480631360A6
:1048300013694B7060E700BF2DE9F341054638B3BB
:104840000368DB0710D42B689F075ED42B68190719
:1048500000F195802B685A0700F1C180E8690028B3
:1048600040F02C81002029E0904C636803F00C0399
:10487000042B07D0636803F00C03082B0AD163688C
:10488000DE0307D523689C03DDD56B68002BDAD1E6
:10489000012013E06B68B3F5803F12D1236843F425
:1048A00080332360FEF774FD064623689803CAD45C
:1048B000FEF76EFD801B6428F7D9032002B0BDE827
:1048C000F0819BB9236823F480332360236823F4A9
:1048D00080232360FEF75CFD064623689903B2D56A
:1048E000FEF756FD801B6428F7D9E6E7B3F5A02F45
:1048F000236803D143F480232360CFE723F480337C
:104900002360236823F48023CBE7684C636813F0AB
:104910000C0F07D0636803F00C03082B10D16368F9
:10492000DA030DD423689B0702D52B69012BAFD185
:1049300023686A6923F0F80343EAC203236085E72A
:104940002A695B4B6AB101221A60FEF721FD064617
:1049500023689F07ECD4FEF71BFD801B0228F7D9C4
:10496000ABE71A60FEF714FD0646236898077FF54B
:104970006DAFFEF70DFD801B0228F6D99DE7AA69F1
:104980004A4E4B4BE2B10122C3F88024FEF700FDF2
:104990000446736A9B070DD54FF4FA52454B1B68CA
:1049A000B3FBF2F3019300BF019B5A1E0192002B4F
:1049B000F9D14FE7FEF7ECFC001B0228E9D97CE7B0
:1049C000C3F88024FEF7E4FC0446736A9F077FF572
:1049D00041AFFEF7DDFC001B0228F6D96DE7334C32
:1049E000E369D80024D40127E36943F08053E361ED
:1049F000E36903F080530093009B2F4E3368D90581
:104A000018D5EB68012B26D1236A43F001032362FA
:104A1000FEF7BEFC41F288380646236A9B073FD565
:104A2000002F3FF41BAFE36923F08053E36115E7E8
:104A30000027E2E7336843F480733360FEF7A8FC95
:104A400080463368DA05DCD4FEF7A2FCA0EB080050
:104A50006428F6D931E7ABB9236A41F2883823F0EC
:104A600001032362236A23F004032362FEF790FC10
:104A70000646236A9807D3D5FEF78AFC801B40457B
:104A8000F7D91AE7052B236A03D143F00403236205
:104A9000BAE723F001032362236A23F00403B6E795
:104AA000FEF776FC801B4045B7D906E700100240B0
:104AB0000000424238000020007000402A4C636829
:104AC00003F00C03082B3ED00022284B02281A6664
:104AD0002CD1FEF75DFC06462368990120D42B6A91
:104AE000B3F5803F05D16268A96822F400320A4319
:104AF0006260696A62680B4322F4741213430122F4
:104B000063601A4B1A66FEF743FC054623689A0158
:104B10003FF5A8AEFEF73CFC401B0228F6D9CCE6D8
:104B2000FEF736FC801B0228D6D9C6E6FEF730FC1D
:104B3000054623689B017FF595AEFEF729FC401BD7
:104B40000228F6D9B9E601283FF4B8AE63682A6AAC
:104B500003F4803191427FF49BAE6A6A03F47013D0
:104B600093423FF47FAE93E60010024000004242C1
:104B70000D4A536803F00C01082912D10B48C3F306
:104B80008341DB03405C09D55368094AC3F34043C2
:104B90005043084AD35CB0FBF3F07047064B5843D0
:104BA00070470348704700BF00100240B7960008E6
:104BB00000127A00C796000800093D002DE9F04177
:104BC0000D46044610B90120BDE8F081444A13683F
:104BD00003F007038B4228D321688E0730D4CA071D
:104BE00043D43F4A136803F00703AB4265D82268F9
:104BF0003C4D12F0040F6CD1130706D56B68226987
:104C000023F4605343EAC2036B60FFF7B1FF6B68A4
:104C1000354AC3F30313D35CD840344B1860344B8C
:104C20001868FEF773FB0020CEE7136823F0070334
:104C30000B431360136803F007038B42C3D1CBE728
:104C4000284B11F0040F1EBF5A6842F4E0625A600C
:104C5000080742BF5A6842F460525A605A68A06816
:104C600022F0F00202435A60B9E762681D4E012A41
:104C700033681AD113F4003FA5D0736841F2883825
:104C800023F0030313437360FEF782FB0746736848
:104C9000626803F00C03B3EB820FA2D0FEF778FB3F
:104CA000C01B4045F3D903208EE7022A02D113F03E
:104CB000007FE1E713F0020FDEE7136823F007033C
:104CC0002B431360136803F00703AB427FF47BAF01
:104CD0008DE76B68E16823F4E0630B436B608BE75F
:104CE00000200240001002409F960008380000207B
:104CF00040000020044B054A5B68C3F30223D35CE9
:104D0000034A1068D840704700100240AF96000870
:104D100038000020044B054A5B68C3F3C223D35C10
:104D2000034A1068D840704700100240AF96000850
:104D300038000020026802F10C0353E8003F23F41E
:104D400090730C3242E8003102680029F2D102F17E
:104D5000140353E8003F23F0010302F1140C4CE864
:104D600000310029F3D1036B012B0BD102F10C03AD
:104D700053E8003F23F0100302F10C0C4CE8003123
:104D80000029F3D1202380F84230002303637047C9
:104D900010B504460368C1681A6922F440520A43F8
:104DA0001A6182680069D9680243606921F4B051D0
:104DB00021F00C0102430A43DA605A69A16922F426
:104DC00040720A435A610E4A934215D1FFF7A2FF7F
:104DD00019234343626820689200B3FBF2F3642214
:104DE000B3FBF2F102FB11331B013233B3FBF2F3DD
:104DF00003EB0113836010BDFFF77CFFE8E700BF02
:104E000000380140F8B504460E4617461D46226894
:104E1000136836EA030301D1002028E06B1CF7D0A9
:104E200025B1FEF7B5FAC01B8542F0D2226802F127
:104E30000C0353E8003F23F4D0730C3242E80030F7
:104E400021680028F2D101F1140353E8003F23F058
:104E5000010301F1140040E80032002AF3D12023BD
:104E6000032084F8413084F8402084F84230F8BDB3
:104E700010B5044648B390F8413003F0FF021BB967
:104E800080F84020FEF74AF92423226884F8413054
:104E9000D368204623F40053D360FFF779FF2368DB
:104EA00000201A6922F490421A615A6922F02A02FB
:104EB0005A61DA6842F40052DA602023606484F8B0
:104EC000413084F84230606310BD0120FCE72DE9D9
:104ED000F843994690F841300446202B0E46174679
:104EE0003CD100293CD0002A3AD02123002545643A
:104EF00080F84130FEF74CFAA3688046B3F5805F36
:104F0000A784E78403D123690BB935461E46E38C99
:104F10009BB253B94B46424640212046FFF772FFF1
:104F200050B9202384F8413007E04B4642468021A7
:104F30002046FFF767FF10B10320BDE8F883226821
:104F40004EB935F8023BC3F308035360E18C0139D5
:104F500089B2E184DBE716F8013BF6E70220ECE7D3
:104F60000120EAE770477047704708B5406A036858
:104F70005A6990F84110212912D1120610D5002249
:104F8000C28403F10C0252E8002F22F0C00203F1A8
:104F90000C0C4CE800210029F3D1202280F841209C
:104FA0005B6990F84220222A05D15B0603D50023D5
:104FB000C385FFF7BFFE436C43F010034364FDF766
:104FC0001DFD08BD08B50023406AC385C384FDF7F5
:104FD00015FD08BD08B50123406A4363036B012B2F
:104FE00004D1818D4908FDF75DFD08BDFFF7BCFFC9
:104FF000FBE708B503461B68406A1B6813F02003F3
:1050000037D1C385026802F10C0353E8003F23F453
:1050100080730C3242E8003103680029F2D103F1B9
:10502000140252E8002F22F0010203F1140C4CE8A4
:1050300000210029F3D103F1140252E8002F22F0DD
:10504000400203F1140C4CE800210029F3D1202286
:1050500080F84220026B012A0BD103F10C0252E8C6
:10506000002F22F0100203F10C0C4CE80021002963
:10507000F3D100234363036B012B03D1818DFDF733
:1050800011FD08BDFFF76FFFFBE707B58168836A75
:10509000B1F5805F02683FD1016900293FD15268B4
:1050A000C2F3080223F8022B8362C38D013B9BB23B
:1050B000C385002B2DD10268D16821F02001D16079
:1050C000D16821F48071D160516921F001015161F1
:1050D000202280F842204363026B012A026828D113
:1050E000036302F10C0353E8003F23F0100302F1C5
:1050F0000C0C4CE800310029F3D11368DB0605D510
:1051000001911368019353680193019B818DFDF711
:10511000C9FC03B05DF804FB39B9016929B95268CB
:10512000D2B21A70836A0133BEE7526802F07F027E
:10513000F7E7FFF718FFECE7036837B51A6804468E
:1051400012F00F0FD9685D690CD1950670D58D06E8
:105150006ED590F84230222B64D103B0BDE83040C8
:10516000FFF793BF05F0010001F4907505435FD090
:10517000D50705D5CB0542BF636C43F001036364DB
:10518000550704D518B1636C43F0020363649307B9
:1051900004D518B1636C43F004036364150707D5A5
:1051A00001F0200303431EBF636C43F008036364F4
:1051B000636C002B36D0900608D58A0606D594F885
:1051C0004230222B02D12046FFF75FFF23682046A2
:1051D0005B69656C03F0400305F008051D4323D0AF
:1051E000FFF7A8FD226853695B0618D502F1140386
:1051F00053E8003F23F0400302F1140040E800317F
:105200000029F3D1E06B50B1734B4363FEF77CFC94
:1052100040B1E06B436B03B0BDE830401847204617
:10522000FDF7ECFB03B030BDFDF7E8FB6564F9E783
:10523000206B012840F09480D50640F19180C8068B
:1052400040F18E80002201921A6801925A68019200
:10525000019A5A6955064DD5E16B0A68526892B2B7
:10526000002ADFD0A08D9042DCD9E2858A69202A0D
:1052700036D003F10C0252E8002F22F4807203F1C1
:105280000C0040E800210029F3D103F1140252E898
:10529000002F22F0010203F1140040E80021002950
:1052A000F3D103F1140252E8002F22F0400203F17F
:1052B000140040E800210029F3D1202284F8422084
:1052C000216303F10C0252E8002F22F0100203F1D7
:1052D0000C0040E800210029F3D1E06BFEF7F2FB5F
:1052E00002236363E38DA18DC91A89B22046FDF7BD
:1052F000D9FB97E7E18D8AB2E18D89B2002991D07F
:10530000A18D891A89B200298CD003F10C0252E8D0
:10531000002F22F4907203F10C0545E800200028CC
:10532000F3D103F1140252E8002F22F0010203F13D
:10533000140545E800200028F3D1202284F84220FB
:10534000206303F10C0252E8002F22F0100203F157
:105350000C0545E800200028F3D102236363C5E76C
:10536000100628D50D0626D594F84120212A7FF471
:1053700059AFA168226AB1F5805F17D12169A9B937
:1053800032F8021BC1F3080159602262E28C013A33
:1053900092B2E284002A7FF445AFDA6822F08002FC
:1053A000DA60DA6842F04002DA603BE7511C2162C1
:1053B00012785A60EAE750067FF534AF4A067FF567
:1053C00031AFDA68204622F04002DA60202384F808
:1053D0004130FFF7C7FD25E7C54F0008406C704717
:1053E00073B51346828500252222044681624564F6
:1053F00080F84220C06B1D4A266882621C4AC26245
:105400001C4AC0E90C250A46311DFEF71FFB236824
:1054100001951A6801925A680192019A22695AB15B
:1054200003F10C0252E8002F42F4807203F10C00E9
:1054300040E800210029F3D103F1140252E8002FC3
:1054400042F0010203F1140040E800210029F3D1E9
:1054500003F1140252E8002F42F0400203F114015C
:1054600041E800200028F3D102B070BDF34F0008DE
:10547000D54F00086B4F000873B590F842600446A2
:10548000202E24D111B9012002B070BD002AFAD01B
:105490000123036300234363FFF7A2FF0028F3D136
:1054A000236B012BEFD1226801901368019353689D
:1054B0000193019B02F10C0353E8003F43F01003FA
:1054C00002F10C0444E800310029F3D1DCE70220AA
:1054D000DAE70000F8B504460D4600F025F822464C
:1054E00006460F462B4620462946FBF78FFA88B919
:1054F0002046294600F022FD0022084BFBF77CFAEB
:1055000040B100F025FD212303600548BDE8F840C7
:1055100000F018BD30463946F8BD00BF0000F03F2E
:105520009E96000800F0FCB92DE9F04FC44B21F025
:10553000004687B09E42024604460D46059129DD8D
:10554000034606F1404606F58016334314D1A2A364
:10555000D3E90023FAF7C0FFA1A3D3E9002306464D
:105560000F4620462946FAF7B7FF02460B4630465B
:105570003946FAF7FBFD06E00B46FAF7F5FD024661
:105580000B46FBF7D3F804460D462046294607B0E4
:10559000BDE8F08FAB4B9E420EDCB6F1795F80F236
:1055A000AB8091A3D3E90023FAF7E0FD0022A64BDC
:1055B000FBF722FA0028E8D12046294600F0BEFC7D
:1055C00002460B460020A049FAF7CEFD00229F4B71
:1055D000FAF782FF86A3D3E9002304460D46FAF7C3
:1055E0007BFF85A3D3E90023FAF7C0FD22462B46B3
:1055F000FAF772FF82A3D3E90023FAF7B5FD22463A
:105600002B46FAF769FF80A3D3E90023FAF7AEFD32
:1056100022462B46FAF760FF7DA3D3E90023FAF771
:10562000A3FD22462B46FAF757FF7BA3D3E90023BD
:10563000FAF79CFD22462B46FAF74EFF78A3D3E9F2
:105640000023CDE9000120462946FAF745FF76A35D
:10565000D3E90023FAF788FD22462B46FAF73CFFF0
:1056600073A3D3E90023FAF781FD22462B46FAF70C
:1056700033FF71A3D3E90023FAF776FD22462B46C8
:10568000FAF72AFF704B0022FAF770FDCDE902010C
:105690002046294600F016FA6D4B82469E428B4604
:1056A00040F3D880DDE90223DDE90001FBF73EF895
:1056B00052465B46FAF710FF52465B46FAF756FD34
:1056C00002460B46FAF752FD45A3D3E90023FAF749
:1056D0004BFD02460B4640A1D1E90001FAF744FD1B
:1056E000059B0446002BDCBF024601F100430D463A
:1056F000DCBF14461D4648E70B46FAF7EDFE3CA317
:10570000D3E9002306460F46FAF7E6FE3AA3D3E9AB
:105710000023FAF72BFD32463B46FAF7DDFE38A3AD
:10572000D3E90023FAF720FD32463B46FAF7D4FED0
:1057300035A3D3E90023FAF719FD32463B46FAF7C1
:10574000CBFE33A3D3E90023FAF70EFD32463B46E6
:10575000FAF7C2FE30A3D3E90023FAF707FD324679
:105760003B46FAF7B9FE2EA3D3E9002380468946CB
:1057700030463946FAF7B0FE2BA3D3E90023FAF7F7
:10578000F3FC32463B46FAF7A7FE29A3D3E90023F0
:10579000FAF7ECFC32463B46FAF79EFE26A3D3E925
:1057A0000023FAF7E1FC32463B46FAF795FE002269
:1057B000254BFAF7DBFC02460B4640464946FAF712
:1057C000B5FF22462B46FAF787FE02460B462046D7
:1057D0002946CEE6AFF30080182D4454FB21F93F53
:1057E000075C143326A6913C9C7500883CE4377E08
:1057F00009F7FD0DE13D023F88B20175E0EF493F39
:105800003B8F68B52882A43F5544880E55C1C93FD7
:105810007D6FEB0312D6D43F555555555555C53FB1
:1058200082922EB1C5B8B33F59018D1B6C06E63F7D
:10583000C88A599CE52A00404B2D8A1C273A034010
:10584000FFFFEF3FFFFFDF3F0000F03F0000E03FC2
:105850003233EF3F02460B46FAF788FCDDE90223BC
:1058600006460F46DDE90001FAF760FF02460B46E7
:1058700030463946FAF730FE4FF0000806460F462C
:1058800042465B4640465946FAF726FE02460B461C
:1058900020462946FAF768FC424604460D465B4618
:1058A00050465946FAF762FC02460B462046294606
:1058B000FAF73CFF02460B46FAF758FC02460B4645
:1058C00013A1D1E90001FAF74FFC02460B4630461E
:1058D0003946FAF749FC424604460D465B464046C7
:1058E0005946FAF743FC02460B460BA1D1E90001E9
:1058F000FAF73AFC02460B4620462946FAF734FCF2
:1059000002460B4604A1D1E90001E7E6AFF30080AF
:10591000075C143326A6913C182D4454FB21E93F23
:105920002DE9F84F9246994623F000421F46CAF1EE
:105930000003DFF884E143EA0A0342EAD3737345C4
:1059400004460D4608D8464221F00043064343EA88
:10595000D67676458C4608D952464B46204629468F
:10596000FAF704FC04460D4619E009F1404606F535
:10597000801656EA0A0603D1BDE8F84F00F054B984
:10598000BE1706F0020646EAD17653EA00010AD1B4
:10599000022E67D0032E02D13BA5D5E90045204653
:1059A0002946BDE8F88F52EA0A0106D1BCF1000F82
:1059B00063DA37A5D5E90045F1E772450FD1934287
:1059C00006F1FF3607D1022E50D83C4B03EBC6063A
:1059D000D6E90045E3E7022E4CD8394BF6E773458C
:1059E000E4D09B1AB3F1747F4FEA235220DA002FE0
:1059F00001DA3C3220DB52464B4620462946FAF774
:105A000095FE00F09BFA00F00FF904460D46012EBA
:105A100015D0022E17D0002EC1D01FA3D3E900232A
:105A200020462946FAF7A0FB1DA3D3E9002316E080
:105A30001DA5D5E90045EAE700240025E7E705F1C3
:105A400000431D46ABE714A3D3E9002320462946B3
:105A5000FAF78AFB02460B4611A1D1E90001FAF7D9
:105A600083FB7FE70EA5D5E9004598E710A5D5E9AA
:105A7000004594E70024002591E70BA5D5E90045F2
:105A80008DE700BFAFF30080182D4454FB2109C0FF
:105A9000182D4454FB21F9BF075C143326A6A13C02
:105AA000182D4454FB210940182D4454FB21F93F83
:105AB000182D4454FB21E93F0000F07FD0960008E8
:105AC000E8960008DFF858C12DE9F0413CEA010CE6
:105AD00006460D460C460A46074603460FD10246C7
