:020000040800F2
:100000000050002045480008713800087338000887
:1000100075380008773800087938000800000000BB
:100020000000000000000000000000007B38000815
:100030007D380008000000007F3800088138000883
:100040008D4800088D4800088D4800088D4800083C
:100050008D4800088D4800088D4800088D4800082C
:100060008D4800088D4800088D4800088D4800081C
:100070008D4800088D4800088D4800088538000824
:100080008D4800088D4800088D4800088D480008FC
:10009000913800088D4800089D3800088D480008F8
:1000A0008D4800088D4800088D4800088D480008DC
:1000B0008D4800088D4800088D4800088D480008CC
:1000C0008D4800088D4800088D4800088D480008BC
:1000D0008D480008A13800088D4800088D480008A8
:1000E0008D4800088D4800088D4800080000000079
:1000F0000000000000000000000000000000000000
:0C01000000000000000000005FF808F1A3
:1001100010B5054C237833B9044B13B10448AFF341
:1001200000800123237010BD140200200000000095
:10013000A4A0000808B5034B1BB103490348AFF363
:10014000008008BD0000000018020020A4A00008E4
:10015000034613F8012B002AFBD1181A0138704707
:1001600081F0004102E000BF83F0004330B54FEA68
:1001700041044FEA430594EA050F08BF90EA020FD5
:100180001FBF54EA000C55EA020C7FEA645C7FEA68
:10019000655C00F0E2804FEA5454D4EB5555B8BF8B
:1001A0006D420CDD2C4480EA020281EA030382EAFC
:1001B000000083EA010180EA020281EA0303362D8E
:1001C00088BF30BD11F0004F4FEA01314FF4801C61
:1001D0004CEA113102D0404261EB410113F0004F73
:1001E0004FEA03334CEA133302D0524263EB43032A
:1001F00094EA050F00F0A780A4F10104D5F1200EC8
:100200000DDB02FA0EFC22FA05F2801841F1000122
:1002100003FA0EF2801843FA05F359410EE0A5F1F6
:1002200020050EF1200E012A03FA0EFC28BF4CF027
:10023000020C43FA05F3C01851EBE37101F00045DD
:1002400007D54FF0000EDCF1000C7EEB00006EEBEA
:100250000101B1F5801F1BD3B1F5001F0CD3490874
:100260005FEA30004FEA3C0C04F101044FEA4452CB
:1002700012F5800F80F09A80BCF1004F08BF5FEA52
:10028000500C50F1000041EB045141EA050130BD32
:100290005FEA4C0C404141EB0101013C28BFB1F544
:1002A000801FE9D291F0000F04BF01460020B1FA8F
:1002B00081F308BF2033A3F10B03B3F120020CDA62
:1002C0000C3208DD02F1140CC2F10C0201FA0CF040
:1002D00021FA02F10CE002F11402D8BFC2F1200CA5
:1002E00001FA02F120FA0CFCDCBF41EA0C0190405B
:1002F000E41AA2BF01EB0451294330BD6FEA0404A4
:100300001F3C1CDA0C340EDC04F11404C4F120028E
:1003100020FA04F001FA02F340EA030021FA04F3A0
:1003200045EA030130BDC4F10C04C4F1200220FAF7
:1003300002F001FA04F340EA0300294630BD21FA35
:1003400004F0294630BD94F0000F83F4801306BFFB
:1003500081F480110134013D4EE77FEA645C18BFEF
:100360007FEA655C29D094EA050F08BF90EA020F86
:1003700005D054EA000C04BF1946104630BD91EA7E
:10038000030F1EBF0021002030BD5FEA545C05D181
:100390004000494128BF41F0004130BD14F58004C0
:1003A0003CBF01F5801130BD01F0004545F0FE4134
:1003B00041F470014FF0000030BD7FEA645C1ABF69
:1003C000194610467FEA655C1CBF0B46024650EAA0
:1003D000013406BF52EA033591EA030F41F40021CC
:1003E00030BD00BF90F0000F04BF0021704730B552
:1003F0004FF4806404F132044FF000054FF0000127
:1004000050E700BF90F0000F04BF0021704730B5E7
:100410004FF4806404F1320410F0004548BF4042BC
:100420004FF000013EE700BF42004FEAE2014FEA11
:1004300031014FEA02701FBF12F07F4393F07F4FEC
:1004400081F06051704732F07F4208BF704793F0EF
:100450007F4F04BF41F40021704730B54FF4607402
:1004600001F0004521F000411CE700BF50EA010205
:1004700008BF704730B54FF000050AE050EA0102AE
:1004800008BF704730B511F0004502D5404261EB1E
:1004900041014FF4806404F132045FEA915C3FF45F
:1004A000D8AE4FF003025FEADC0C18BF03325FEAFC
:1004B000DC0C18BF033202EBDC02C2F1200300FAAD
:1004C00003FC20FA02F001FA03FE40EA0E0021FAD2
:1004D00002F11444BDE600BF70B54FF0FF0C4CF4C0
:1004E000E06C1CEA11541DBF1CEA135594EA0C0F72
:1004F00095EA0C0F00F0DEF82C4481EA030621EAAD
:100500004C5123EA4C5350EA013518BF52EA0335E7
:1005100041F4801143F4801338D0A0FB02CE4FF099
:100520000005E1FB02E506F00042E0FB03E54FF0C9
:100530000006E1FB03569CF0000F18BF4EF0010EC1
:10054000A4F1FF04B6F5007F64F5407404D25FEABD
:100550004E0E6D4146EB060642EAC62141EA555170
:100560004FEAC52040EA5E504FEACE2EB4F1FD0CB2
:1005700088BFBCF5E06F1ED8BEF1004F08BF5FEA30
:10058000500E50F1000041EB045170BD06F00046E2
:1005900046EA010140EA020081EA0301B4EB5C048F
:1005A000C2BFD4EB0C0541EA045170BD41F4801187
:1005B0004FF0000E013C00F3AB8014F1360FDEBFAC
:1005C000002001F0004170BDC4F10004203C35DA88
:1005D0000C341BDC04F11404C4F1200500FA05F30B
:1005E00020FA04F001FA05F240EA020001F00042AC
:1005F00021F0004110EBD37021FA04F642EB060122
:100600005EEA430E08BF20EAD37070BDC4F10C044B
:10061000C4F1200500FA04F320FA05F001FA04F20F
:1006200040EA020001F0004110EBD37041F10001FB
:100630005EEA430E08BF20EAD37070BDC4F1200506
:1006400000FA05F24EEA020E20FA04F301FA05F26E
:1006500043EA020321FA04F001F0004121FA04F216
:1006600020EA020000EBD3705EEA430E08BF20EAE6
:10067000D37070BD94F0000F0FD101F00046400020
:1006800041EB010111F4801F08BF013CF7D041EAA2
:10069000060195F0000F18BF704703F000465200A6
:1006A00043EB030313F4801F08BF013DF7D043EA77
:1006B0000603704794EA0C0F0CEA135518BF95EA2D
:1006C0000C0F0CD050EA410618BF52EA4306D1D1B4
:1006D00081EA030101F000414FF0000070BD50EAD3
:1006E000410606BF1046194652EA430619D094EA5D
:1006F0000C0F02D150EA013613D195EA0C0F05D147
:1007000052EA03361CBF104619460AD181EA03019A
:1007100001F0004141F0FE4141F470014FF0000052
:1007200070BD41F0FE4141F4780170BD70B54FF0ED
:10073000FF0C4CF4E06C1CEA11541DBF1CEA13556D
:1007400094EA0C0F95EA0C0F00F0A7F8A4EB05044F
:1007500081EA030E52EA03354FEA013100F0888046
:100760004FEA03334FF0805545EA131343EA12630F
:100770004FEA022245EA111545EA10654FEA0026C4
:100780000EF000419D4208BF964244F1FD0404F57D
:10079000407402D25B084FEA3202B61A65EB0305D9
:1007A0005B084FEA32024FF480104FF4002CB6EB96
:1007B000020E75EB030E22BFB61A754640EA0C0016
:1007C0005B084FEA3202B6EB020E75EB030E22BF56
:1007D000B61A754640EA5C005B084FEA3202B6EB97
:1007E000020E75EB030E22BFB61A754640EA9C0056
:1007F0005B084FEA3202B6EB020E75EB030E22BF26
:10080000B61A754640EADC0055EA060E18D04FEAE3
:10081000051545EA16754FEA06164FEAC30343EA83
:1008200052734FEAC2025FEA1C1CC0D111F4801F50
:100830000BD141EA00014FF000004FF0004CB6E749
:1008400011F4801F04BF01430020B4F1FD0C88BFE8
:10085000BCF5E06F3FF6AFAEB5EB030C04BFB6EBF3
:10086000020C5FEA500C50F1000041EB045170BDE6
:100870000EF0004E4EEA113114EB5C04C2BFD4EB13
:100880000C0541EA045170BD41F480114FF0000E97
:10089000013C90E645EA060E8DE60CEA135594EA13
:1008A0000C0F08BF95EA0C0F3FF43BAF94EA0C0F16
:1008B0000AD150EA01347FF434AF95EA0C0F7FF48B
:1008C00025AF104619462CE795EA0C0F06D152EADF
:1008D00003353FF4FDAE1046194622E750EA4106C3
:1008E00018BF52EA43067FF4C5AE50EA41047FF4D4
:1008F0000DAF52EA43057FF4EBAE12E74FF0FF3C39
:1009000006E000BF4FF0010C02E000BF4FF0010C09
:100910004DF804CD4FEA410C7FEA6C5C4FEA430C82
:1009200018BF7FEA6C5C1BD001B050EA410C0CBFD1
:1009300052EA430C91EA030F02BF90EA020F002033
:10094000704710F1000F91EA030F58BF994208BF9A
:1009500090422CBFD8176FEAE37040F00100704757
:100960004FEA410C7FEA6C5C02D150EA013C07D1AE
:100970004FEA430C7FEA6C5CD6D152EA033CD3D0F9
:100980005DF8040B704700BF8446104662468C46F3
:100990001946634600E000BF01B5FFF7B7FF002826
:1009A00048BF10F1000F01BD4DF808EDFFF7F4FF4F
:1009B0000CBF012000205DF808FB00BF4DF808EDDA
:1009C000FFF7EAFF34BF012000205DF808FB00BFFD
:1009D0004DF808EDFFF7E0FF94BF012000205DF81F
:1009E00008FB00BF4DF808EDFFF7CEFF94BF0120D4
:1009F00000205DF808FB00BF4DF808EDFFF7C4FFCD
:100A000034BF012000205DF808FB00BF4FEA410C15
:100A10007FEA6C5C02D150EA013C0AD14FEA430CF8
:100A20007FEA6C5C02D152EA033C02D14FF0000035
:100A300070474FF0010070474FEA410212F5001273
:100A400015D211D56FF47873B3EB625212D94FEA15
:100A5000C12343F0004343EA505311F0004F23FAFF
:100A600002F018BF404270474FF00000704750EA54
:100A7000013005D111F0004008BF6FF00040704711
:100A80004FF00000704700BF4A0011D212F500126B
:100A900011D20DD56FF47873B3EB62520ED44FEAD6
:100AA000C12343F0004343EA505323FA02F0704756
:100AB0004FF00000704750EA013002D14FF0FF3094
:100AC00070474FF0000070474FEA4102B2F1E04337
:100AD00024BFB3F5001CDCF1FE5C0DD901F0004C25
:100AE0004FEAC0024CEA5070B2F1004F40EB830075
:100AF00008BF20F00100704711F0804F21D113F1A1
:100B00003872BCBF01F00040704741F480114FEAD9
:100B10005252C2F11802C2F1200C10FA0CF320FA62
:100B200002F018BF40F001004FEAC1234FEAD3237F
:100B300003FA0CFC40EA0C0023FA02F34FEA4303E9
:100B4000CCE77FEA625307D150EA01331EBF4FF072
:100B5000FE4040F44000704701F0004040F0FE408D
:100B600040F40000704700BF80F0004002E000BF8A
:100B700081F0004142001FBF5FEA410392EA030F88
:100B80007FEA226C7FEA236C6AD04FEA1262D2EBD2
:100B90001363C1BFD218414048404140B8BF5B42D7
:100BA000192B88BF704710F0004F40F4000020F070
:100BB0007F4018BF404211F0004F41F4000121F086
:100BC0007F4118BF494292EA030F3FD0A2F10102D0
:100BD00041FA03FC10EB0C00C3F1200301FA03F10E
:100BE00000F0004302D5494260EB4000B0F5000F31
:100BF00013D3B0F1807F06D340084FEA310102F1F0
:100C00000102FE2A51D2B1F1004F40EBC25008BFA1
:100C100020F0010040EA03007047490040EB00006B
:100C2000013A28BFB0F5000FEDD2B0FA80FCACF16C
:100C3000080CB2EB0C0200FA0CF0AABF00EBC25099
:100C400052421843BCBFD0401843704792F0000F87
:100C500081F4000106BF80F400000132013BB5E7DA
:100C60004FEA41037FEA226C18BF7FEA236C21D050
:100C700092EA030F04D092F0000F08BF08467047B5
:100C800090EA010F1CBF0020704712F07F4F04D183
:100C9000400028BF40F00040704712F100723CBF96
:100CA00000F50000704700F0004343F0FE4040F4C0
:100CB000000070477FEA226216BF08467FEA23637E
:100CC0000146420206BF5FEA412390EA010F40F469
:100CD000800070474FF0000304E000BF10F00043B5
:100CE00048BF40425FEA000C08BF704743F096439C
:100CF00001464FF000001CE050EA010208BF7047B7
:100D00004FF000030AE000BF50EA010208BF70473D
:100D100011F0004302D5404261EB41015FEA010C52
:100D200002BF84460146002043F0B64308BFA3F14A
:100D30008053A3F50003BCFA8CF2083AA3EBC2532C
:100D400010DB01FA02FC634400FA02FCC2F120024B
:100D5000BCF1004F20FA02F243EB020008BF20F082
:100D60000100704702F1200201FA02FCC2F12002E8
:100D700050EA4C0021FA02F243EB020008BF20EADD
:100D8000DC7070474FF0FF0C1CEAD0521EBF1CEA0B
:100D9000D15392EA0C0F93EA0C0F6FD01A4480EAF9
:100DA000010C400218BF5FEA41211ED04FF00063E2
:100DB00043EA501043EA5111A0FB01310CF000400E
:100DC000B1F5000F3EBF490041EAD3715B0040EA34
:100DD000010062F17F02FD2A1DD8B3F1004F40EB04
:100DE000C25008BF20F00100704790F0000F0CF0D7
:100DF000004C08BF49024CEA502040EA51207F3A9B
:100E0000C2BFD2F1FF0340EAC250704740F4000075
:100E10004FF00003013A5DDC12F1190FDCBF00F066
:100E200000407047C2F10002410021FA02F1C2F114
:100E3000200200FA02FC5FEA310040F1000053EAB0
:100E40004C0308BF20EADC70704792F0000F00F0FE
:100E5000004C02BF400010F4000F013AF9D040EA04
:100E60000C0093F0000F01F0004C02BF490011F498
:100E7000000F013BF9D041EA0C018FE70CEAD15396
:100E800092EA0C0F18BF93EA0C0F0AD030F0004C16
:100E900018BF31F0004CD8D180EA010000F00040CA
:100EA000704790F0000F17BF90F0004F084691F088
:100EB000000F91F0004F14D092EA0C0F01D14202C2
:100EC0000FD193EA0C0F03D14B0218BF084608D18B
:100ED00080EA010000F0004040F0FE4040F40000D5
:100EE000704740F0FE4040F4400070474FF0FF0C68
:100EF0001CEAD0521EBF1CEAD15392EA0C0F93EAAF
:100F00000C0F69D0A2EB030280EA010C49024FEA00
:100F1000402037D04FF0805343EA111143EA1013B9
:100F20000CF000408B4238BF5B0042F17D024FF471
:100F3000000C8B4224BF5B1A40EA0C00B3EB510F4C
:100F400024BFA3EB510340EA5C00B3EB910F24BF35
:100F5000A3EB910340EA9C00B3EBD10F24BFA3EBBA
:100F6000D10340EADC001B0118BF5FEA1C1CE0D182
:100F7000FD2A3FF650AF8B4240EBC25008BF20F035
:100F8000010070470CF0004C4CEA50207F32C2BF89
:100F9000D2F1FF0340EAC250704740F400004FF026
:100FA0000003013A37E792F0000F00F0004C02BF57
:100FB000400010F4000F013AF9D040EA0C0093F021
:100FC000000F01F0004C02BF490011F4000F013B7B
:100FD000F9D041EA0C0195E70CEAD15392EA0C0FE3
:100FE00008D142027FF47DAF93EA0C0F7FF470AF1B
:100FF000084676E793EA0C0F04D14B023FF44CAF5E
:1010000008466EE730F0004C18BF31F0004CCAD1F2
:1010100030F000427FF45CAF31F000437FF43CAF2E
:101020005FE700BF4FF0FF3C06E000BF4FF0010C50
:1010300002E000BF4FF0010C4DF804CD4FEA400232
:101040004FEA41037FEA226C18BF7FEA236C11D07C
:1010500001B052EA530C18BF90EA010F58BFB2EB2F
:10106000030088BFC81738BF6FEAE17018BF40F0AF
:10107000010070477FEA226C02D15FEA402C05D163
:101080007FEA236CE4D15FEA412CE1D05DF8040BE8
:10109000704700BF844608466146FFE70FB5FFF77B
:1010A000C9FF002848BF10F1000F0FBD4DF808ED33
:1010B000FFF7F4FF0CBF012000205DF808FB00BF24
:1010C0004DF808EDFFF7EAFF34BF012000205DF87E
:1010D00008FB00BF4DF808EDFFF7E0FF94BF0120CB
:1010E00000205DF808FB00BF4DF808EDFFF7D2FFC8
:1010F00094BF012000205DF808FB00BF4DF808ED0B
:10110000FFF7C8FF34BF012000205DF808FB00BFD7
:101110004FEA4002B2F1FE4F0FD34FF09E03B3EB04
:1011200012620DD94FEA002343F0004310F0004F44
:1011300023FA02F018BF404270474FF0000070479A
:1011400012F1610F01D1420205D110F0004008BF39
:101150006FF0004070474FF00000704742000ED221
:10116000B2F1FE4F0BD34FF09E03B3EB126209D4E2
:101170004FEA002343F0004323FA02F070474FF098
:101180000000704712F1610F01D1420202D14FF00D
:10119000FF3070474FF00000704700BF53B94AB9A5
:1011A000002908BF00281CBF4FF0FF314FF0FF306F
:1011B00000F076B9ADF1080C6DE904CE00F006F848
:1011C000DDF804E0DDE9022304B070472DE9F047C3
:1011D000089E0D4604468846002B4DD18A4294460F
:1011E00068D9B2FA82F252B101FA02F3C2F12001D7
:1011F00020FA01F10CFA02FC41EA030894404FEA9C
:101200001C41B8FBF1F71FFA8CFE01FB178807FBA6
:101210000EF0230C43EA084398420AD91CEB03035F
:1012200007F1FF3580F01E81984240F21B81023F9A
:1012300063441B1AB3FBF1F001FB103300FB0EFEFD
:10124000A4B244EA0344A6450AD91CEB040400F105
:10125000FF3380F00981A64540F2068164440238DC
:101260000021A4EB0E0440EA07401EB10023D44045
:10127000C6E90043BDE8F0878B4208D9002E00F094
:10128000EE800021C6E900050846BDE8F087B3FA04
:1012900083F100294AD1AB4202D3824200F2FC80A2
:1012A000841A65EB030301209846002EE2D0C6E9BC
:1012B0000048DFE702B9FFDEB2FA82F2002A40F00E
:1012C0009180A1EB0C0001214FEA1C471FFA8CFE14
:1012D000B0FBF7F307FB1300250C45EA00450EFBB6
:1012E00003F0A84208D91CEB050503F1FF3802D230
:1012F000A84200F2CE8043462D1AB5FBF7F007FB5B
:1013000010550EFB00FEA4B244EA0544A64508D9D8
:101310001CEB040400F1FF3502D2A64500F2B680B2
:101320002846A4EB0E0440EA03409EE7C1F12007E3
:101330008B4022FA07FC4CEA030C25FA07FA4FEA25
:101340001C49BAFBF9F820FA07F309FB18AA8D40EB
:101350001FFA8CFE1D4300FA01F308FB0EF02C0C63
:1013600044EA0A44A04202FA01F20BD91CEB04043D
:1013700008F1FF3A80F08880A04240F28580A8F111
:1013800002086444241AB4FBF9F009FB104400FB82
:101390000EFEADB245EA0444A64508D91CEB040490
:1013A00000F1FF356CD2A6456AD90238644440EAA0
:1013B0000840A0FB0295A4EB0E04AC42C846AE4622
:1013C00056D353D0002E69D0B3EB080264EB0E0461
:1013D00022FA01F304FA07F71F43CC40C6E9007470
:1013E000002147E70CFA02FCC2F1200125FA01F3C3
:1013F0004FEA1C4720FA01F195400D43B3FBF7F18A
:1014000007FB11331FFA8CFE280C40EA034001FB56
:101410000EF3834204FA02F408D91CEB000001F138
:10142000FF382FD283422DD902396044C01AB0FB55
:10143000F7F307FB1300ADB245EA004503FB0EF0DE
:10144000A84208D91CEB050503F1FF3816D2A842C3
:1014500014D9023B6544281A43EA014138E7314672
:10146000304607E72F46E4E61846F9E64B45A9D291
:10147000B9EB020865EB0C0E0138A3E74346EAE737
:10148000284694E74146D1E7D0467BE764440238DA
:1014900047E7023B65442FE7084606E73146E9E6A1
:1014A000704700BF07B501A800F004FC18B9019807
:1014B00003B05DF804FB0020FAE707B50DF1060064
:1014C00000F018FC20B9BDF8060003B05DF804FB7D
:1014D0000020FAE707B572200DF1060100F034FA9A
:1014E00018B1002003B05DF804FB73200DF1070173
:1014F00000F02AFA0028F4D19DF806309DF8070084
:1015000040EA0320EEE700F0CFBD000013B501A8CC
:1015100000F066FE044668B9012000F07DFC7920E9
:10152000FFF7F1FFFFF7BEFF044B1860FFF7C5FFA1
:10153000034B1880204602B010BD00BF34020020CB
:1015400030020020C82828BFC82001F09BB8000046
:1015500000B58DB00DF1090301930DF10A0300935D
:1015600008AA03AB06A904A801F038FB002835D16E
:10157000BDF80A3019070BD5BDF91810184A1160CB
:10158000BDF91A10174A1160BDF91C10164A1160F6
:101590005A0642BF154ABDF910101160990642BFA4
:1015A000BDF91210124A1160DA0642BFBDF91410DB
:1015B000104A1160DB050BD50F4B089A1A600F4BD0
:1015C000099A1A600E4B0A9A1A600E4B0B9A1A600F
:1015D0000D4B039A1A600DB05DF804FB2020FAE76A
:1015E000380200203C02002040020020440200207B
:1015F000480200204C020020540200205802002023
:101600005C020020600200206802002040F001001F
:1016100001F0FAB938B504460D4601F029F828BBA7
:1016200061071DD524F010040120A4B201F0B2F925
:10163000A30602D5012001F093F92046FFF7E6FF4B
:10164000A0B9E8B2C82828BFC820012838BF0120A7
:10165000FFF778FF50B9BDE83840012000F0B6BF71
:10166000E206E5D5012001F0B2F9E1E7202038BD1E
:10167000002370B5012205460C4618469C4216DC34
:101680002840FFF727FB06460220631E9840FFF71D
:1016900025FB01463046FFF729FC064645FA04F0D3
:1016A000FFF71CFB01463046FFF764FA70BD02FAF3
:1016B00003F108430133E1E72DE9F74F844B1E2185
:1016C00001901868FFF7D4FF824B80461E211868EE
:1016D000FFF7CEFF804B07461E211868FFF7C8FFB3
:1016E0007E4B05461E211868FFF7C2FF29460646B5
:1016F0002846FFF747FB814631463046FFF742FB5D
:101700004946FFF737FA4FF04041FFF73BFB4FF0F8
:101710007E51FFF72FFA294683463846FFF732FB02
:10172000314604464046FFF72DFB01462046FFF7B1
:101730001FFA0146FFF71EFA314682463846FFF788
:1017400021FB294604464046FFF71CFB0146204684
:10175000FFF710FA4FF04041FFF714FB3146044603
:101760002846FFF70FFB394605464046FFF70AFBC0
:1017700001462846FFF7FCF90146FFF7FBF9394619
:1017800005463846FFF7FEFA4946FFF7F3F94FF0F2
:101790004041FFF7F7FA4FF07E51FFF7EBF94FF0BA
:1017A0007E5106462046FFF7A9FC002840F08680BF
:1017B00020464B49FFF784FC002840F082802046F9
:1017C000FEF732FE05F0A6F902460B46FEF7CEFC08
:1017D000FFF77AF9DFF80C81C8F800003046FEF711
:1017E00023FE0F4606462846FEF71EFE3B463246BF
:1017F00005F0B8F9FFF768F93B4F38605846FEF737
:1018000013FE04460D465046FEF70EFE22462B46BA
:1018100005F0A8F9FFF758F9DFF8D0A0019B0446BE
:10182000CAF80000002B46D0D8F80000FEF7FCFDF7
:1018300025A3D3E90023FEF74FFEFFF745F906463F
:10184000C8F800003868FEF7EFFD1FA3D3E90023B6
:10185000FEF742FEFFF738F9386005462046FEF7EE
:10186000E3FD19A3D3E90023FEF736FEFFF72CF9B9
:1018700000210446CAF800003046FFF721FC28B1D9
:1018800030461B49FFF776F9C8F8000000212846CA
:10189000FFF716FC20B128461549FFF76BF93860B1
:1018A00000212046FFF70CFC28B120461049FFF725
:1018B00061F9CAF8000003B0BDE8F08F4FF07E5424
:1018C0007DE7074C7BE700BF775AF01ADCA54C4058
:1018D00054020020580200205C0200206002002018
:1018E000000080BF50020020640200206C02002033
:1018F0000000B44313B5134C034694F8240090B190
:10190000002B18BF0223D4E900108DF80730012204
:10191000497C00780DF1070301F03EFE68B14FF0FD
:10192000FF3002B010BDA27A002AF8D0002BEAD016
:10193000637C002BF5D10123E5E79DF80730637444
:10194000EFE700BF0000002010B40B4A0B461168FF
:101950004C7B84420CD0097E814209D054682279A4
:10196000824205D901460122207810BC01F03ABE1E
:101970004FF0FF3010BC70470000002013B5584CEA
:10198000A37A1BB94FF0FF3002B010BD0023D4E999
:1019900000108DF807300122497C00780DF1070313
:1019A00001F0FAFD0028EDD1D4E9001001224979B7
:1019B00000780DF1070301F0EFFD0028E2D1D4E932
:1019C00000100122097900780DF1070301F0E4FD10
:1019D0000028D7D1D4E90030197994F82430002BAD
:1019E00042D00C238DF80730012200780DF1070357
:1019F00001F0D2FD0028C5D1322001F02EFDD4E93E
:101A00000010C0238DF80730A37A0122DB0744BF02
:101A1000E0238DF80730097900780DF1070301F014
:101A2000BBFD0028AED1D4E90010637C0122002B5D
:101A300018BF02238DF80730497C00780DF10703A9
:101A400001F0AAFD00289DD10DF107038DF80700D4
:101A5000D4E9001001224979007801F09DFD003899
:101A600018BF012040428FE704238DF80730012280
:101A700000780DF1070301F08FFD002882D1A37CCF
:101A800063BBA37A13F0010F0CBF40236023D4E99A
:101A900000108DF807300122097900780DF1070355
:101AA00001F07AFD00287FF46DAF322001F0D5FC03
:101AB000D4E90010637C0122003B18BF01238DF89C
:101AC0000730497C00780DF1070301F065FD00281F
:101AD0007FF458AFD4E90010024BBBE74023D6E7B0
:101AE000000000201000002013B51A4CA37A1BB987
:101AF0004FF0FF3002B010BDB0F57A7F25D006D888
:101B0000FA2809D0B0F5FA7FF2D1082305E0B0F544
:101B1000FA6FEDD1182300E000238DF807309DF80F
:101B20000720237AB3EBD20F11D0D4E900100122A1
:101B3000897900780DF1070301F02EFD0028D7D137
:101B40009DF80730DB082372D4E71023E5E7002077
:101B5000D0E700BF000000200C4B5A7A032A12D8AD
:101B6000DFE802F0020B0D0F02220270DB7C13B1E2
:101B700003785B000370002070470422F5E7082219
:101B8000F3E71022F1E74FF0FF307047000000202C
:101B900013B5184CA37A1BB94FF0FF3002B010BD3B
:101BA000082823D005D8022807D00428F4D1082318
:101BB00004E01028F0D1182300E000238DF807304E
:101BC0009DF80720637AB3EBD20F11D0D4E900104F
:101BD0000122C97900780DF1070301F0DDFC00282E
:101BE000DAD19DF80730DB086372D7E71023E5E709
:101BF0000020D3E70000002013B5194CA37A1BB9CD
:101C00004FF0FF3002B010BDBB2816D901238DF86C
:101C10000730E27A9DF807309A421FD0D4E90010CD
:101C20000122897800780DF1070301F0B5FC002846
:101C3000E6D19DF80730E372E4E7612801D9022379
:101C4000E5E7292801D90323E1E7132801D9042373
:101C5000DDE709288CBF05230623D8E70020D1E75C
:101C60000000002013B518B94FF0FF3002B010BDCE
:101C70000F4CE3898342F7D36428F5D8B3FBF0F324
:101C8000D4E90010013B8DF80730012291F82410AF
:101C900000780DF1070301F07FFC0028E4D19DF8E6
:101CA0000720E3890132B3FBF2F32385DEE700BFAF
:101CB000000000200A4B1B7A032B0DD8DFE803F04D
:101CC0000206080A074B036000207047064BFAE73C
:101CD000064BF8E7064BF6E74FF0FF30704700BFC2
:101CE000000000200000034300008342333303421E
:101CF000333383410E4B5A7A032A16D8DFE802F0B9
:101D0000020C0F124FF480420280DB7C13B1038877
:101D10005B080380002070474FF40052F4E74FF453
:101D20008052F1E74FF40062EEE74FF0FF3070476A
:101D300000000020F8B5114E96F82430E3B9B47ACB
:101D40009CB100F0FE052C40307D377C3474641B60
:101D500018BF4FF0FF3428430AD00120FFF7CAFD17
:101D600045B1FFF70BFE28B137744FF0FF3401E0A7
:101D7000FFF7C0FD2046F8BD0024FBE7000000206F
:101D80002DE9F341234F064697F82430884615463F
:101D900023B94FF0FF3002B0BDE8F081BB7A002BD1
:101DA000F7D0D7E900100222097B007801AB01F0DF
:101DB00019FC0028EDD1BDF8044062BA94B2A642E5
:101DC00001D92870E5E778684388B4EB530F11D93F
:101DD00039680122C97C007801AB01F003FC0028BE
:101DE000D7D19DF80430DB0604D5FFF7C7FD6FF0AF
:101DF0000100D0E7D7E900104346497B0078F2B2F2
:101E000001F0F0FB0028C4D1B4FBF6F4013C2C70C7
:101E1000C1E700BF0000002037B5384C0546A37C61
:101E2000834269D0636801221878236819790DF11B
:101E300007036DB301F0D6FB18B14FF0FF3003B0CC
:101E400030BD9DF80730D4E9001023F020038DF851
:101E500007300122097900780DF1070301F09CFB9E
:101E60000028EAD1032001F0F8FA02238DF80730A8
:101E700094F8223013B182238DF8073094F8233080
:101E800073B39DF8073043F030038DF8073027E037
:101E900001F0A8FB0028D0D1D4E90010A27A9DF867
:101EA0000730D2074CBF43F0200303F0DF038DF867
:101EB00007300122097900780DF1070301F06CFB6E
:101EC0000028BAD1032001F0C8FA94F8223094F81F
:101ED0002320002B18BF80238DF80730002AD2D191
:101EE000D4E900100122C97D00780DF1070301F04B
:101EF00053FB0028A1D1A5740020A0E7000000201A
:101F000037B5174C054694F82330834222D0002879
:101F10000CBF00233023A27C8DF807301AB143F0A8
:101F200002038DF8073094F822302BB19DF807306A
:101F300063F07F038DF80730D4E900100122C97DDA
:101F400000780DF1070301F027FB28B984F823502E
:101F500003B030BD0020FBE74FF0FF30F8E700BFD3
:101F600000000020282837B5044604D94FF0FF347C
:101F7000204603B030BD274D98B9FFF7C1FFD5E922
:101F8000001007238DF804408DF805300222497DAA
:101F9000007801AB01F000FB04460028E6D128756B
:101FA000E6E70120FFF7ACFF012C22D10223D5E99F
:101FB00000108DF804300122497A007801AB01F05D
:101FC000EBFA0028D2D1D5E9001020238DF8043097
:101FD0000122497D007801AB01F0DEFA04460028B9
:101FE000C4D10823AB72012328732B75FFF7A2FE1F
:101FF000BEE7022C01D10323D9E7052C01D8042325
:10200000D5E70A2C01D80523D1E7142C94BF062369
:102010000723CCE70000002073B5224E0446B37AB4
:1020200023B94FF0FF34204602B070BD96F824501B
:10203000002DF6D1337D4BB1431E272B03D8FFF77C
:1020400091FF2C46EFE72846FFF78CFFD6E90010FA
:10205000B4F57A7F28BF4FF47A74042C38BF042477
:102060004FF47A75B5FBF4F4013C8DF8074001227A
:10207000497800780DF1070301F08EFA0446002834
:10208000CFD19DF80730308D0133B5FBF3F56428CF
:10209000A8BF6420F581FFF7E5FDF0894008FFF750
:1020A000ABFDC0E70000002010F0700373B50546DB
:1020B00014D00123494C8DF80630D4E900100122D8
:1020C000497D00780DF1060301F066FA50B1002356
:1020D000A3724FF0FF36304602B070BD0028E9D140
:1020E0004023E7E79DF80630012223F040032373E5
:1020F0006B0656BF04238DF806008DF80630AE0639
:102100005EBF9DF8063043F002038DF80630E80606
:102110005EBF9DF8063043F001038DF806302907B5
:1021200058BF9DF80630D4E900105CBF43F0380377
:102130008DF80630897D00780DF1060301F02CFA48
:102140000028C4D115F0F70F01D0FFF7D9FED4E96C
:1021500000100122097900780DF1070301F042FA1D
:102160000028B6D1EA074CBF112210229DF8073093
:1021700047BF8DF8062043F0200323F020038DF89D
:10218000062094F824208DF807309DF807300AB314
:1021900043F080038DF80730D4E90010012291F854
:1021A000261000780DF1060301F0F6F9002890D111
:1021B000D4E900100122097900780DF1070301F03C
:1021C000EBF90646002884D120753220A57201F073
:1021D00044F980E703F07F03DCE700BF0000002044
:1021E0007FB58023A04C8DF80830D4E9001001227F
:1021F000497D007802AB01F0CFF9054620B14FF0E0
:10220000FF34204604B070BD642001F026F9D4E903
:1022100000108DF808500122497D007802AB01F0D2
:10222000BBF90028EBD14823E0748DF80830D4E9DD
:1022300000100122097A007802AB01F0ADF9002804
:10224000DDD14FF6FF73E3812374FF230125A374CF
:102250004FF0FF33A082C4F81600C4F81A00C4F887
:102260001E006062A3604FF4FA60658425732385C5
:10227000FFF73AFC0028C2D10220FFF789FC0028B2
:10228000BDD12A20FFF7B8FC0028B8D13220FFF7D3
:10229000C3FE0028B3D1FFF74DFD0028AFD128467B
:1022A000FFF7BAFD0C2501220021284601AB01F001
:1022B00099F918B99DF80430482B0CD00135EDB2CE
:1022C000102DF0D10A20FFF7CDFC0446002896D14E
:1022D000FFF7EAFE95E7102601220A21284601AB06
:1022E00084F82A508DF8046001F056F90028E9D1ED
:1022F000012001F0B2F81F2301228DF804300A21D9
:1023000094F82A0001AB01F047F90028DAD1012046
:1023100001F0A3F80322314694F82A0001AB01F042
:1023200061F90028CED19DF8043001228033A385C5
:102330009DF805300A218033E3859DF8063094F836
:102340002A008033238601AB8DF8046001F024F964
:1023500005460028B6D1012001F07FF82846FFF796
:102360005BFDD4E9001040238DF804300122897E02
:10237000007801AB01F010F90028A3D1D4E90010D6
:1023800094F82A30012263F07F038DF80430897FAE
:10239000007801AB01F000F9002893D1D4E90010D6
:1023A00002238DF804300122C97F007801AB01F0CF
:1023B000F3F8002886D1D4E9001088238DF8043082
:1023C000012291F82010007801AB01F0E5F8002817
:1023D0007FF478AFD4E9001094F82A3001228DF808
:1023E000043091F82110007801AB01F0D5F80028F5
:1023F0007FF468AFD4E900100A238DF8043001227D
:1024000091F82210007801AB01F0C6F800287FF4A3
:1024100059AFD4E9001081238DF80430012291F8DE
:102420002310007801AB01F0B7F800287FF44AAF21
:10243000D4E9001011238DF80430012291F8261000
:10244000007801AB01F0A8F800287FF43BAFD4E995
:10245000001003238DF80430012291F8271001ABFE
:10246000007801F099F82DE700000020F7B50D463F
:1024700016461AB94FF0FF3003B0F0BD124CA37AE4
:10248000002BF7D06768030A8DF80430C0B27B894F
:102490008DF8050008449842ECDC21680222C97ED0
:1024A000387801AB01F078F80028E3D1D4E90010C6
:1024B0003346097E0078EAB201F06EF8003818BFA2
:1024C00001204042D8E700BF00000020F7B50D46CC
:1024D00016461AB94FF0FF3003B0F0BD124CA37A84
:1024E000002BF7D06768030A8DF80430C0B27B89EF
:1024F0008DF8050008449842ECDC21680222C97E70
:10250000387801AB01F048F80028E3D1D4E9001095
:102510003346097E0078EAB201F064F8003818BF4B
:1025200001204042D8E700BF000000202DE9F04F15
:10253000254D89B095F8254081468A461746019376
:1025400024B14FF0FF3009B0BDE8F08F0029F8D07A
:102550004C4514D33B0A8DF80C308DF80D70D5E93D
:1025600000100222497F007803AB01F015F8002823
:10257000E7D1012385F82530019BEB84E3E7A9EB44
:10258000040BBBF1100FA8BF4FF0100B0AEB0408AF
:102590001FFA8BF6424631462046FFF767FF0028B8
:1025A000CFD13146204604AAFFF790FF0028C8D1BA
:1025B0003246404604A905F015F810B93444A4B2D7
:1025C000C6E76FF00100BEE70000002037B51D4DE3
:1025D000044695F8243083421ED000B395F8253088
:1025E0006BB300240020FFF785F90020FFF714FCEF
:1025F000E88CFFF711FD68688DF807400122232160
:1026000000780DF1070300F0C7FF012085F82400D2
:10261000FFF770F9FFF7B2F9002003B030BDFFF704
:1026200069F92B7C68688DF8073001222321007836
:102630000DF1070300F0B0FF85F82440EAE74FF002
:10264000FF30EAE7000000201FB5084A01AB106820
:102650005168127A03C309211A704FF4976001AAD6
:10266000FFF704FF05B05DF804FB00BF28A10008D8
:10267000C8234FF4806240F6F6300149FFF756BF99
:1026800049A1000810B50446144A86B01068516884
:1026900003AB03C39068C82C186003D94FF0FF3018
:1026A00006B010BD00238DF80430C823B3FBF4F34B
:1026B0000221013B40F2162001AA8DF80530FFF7F8
:1026C000D5FE0028EAD10C2140F6C12003AAFFF76D
:1026D000CDFE0028E2D1024B9C81E1E732A1000847
:1026E0007002002073B504460846610703D14FF01D
:1026F000FF3002B070BDB0F5C86FF8D8FEF7EAFA47
:102700004449FEF7F3FB06460DF10300FFF724FAF8
:102710009DF80330082B60D00DD8022B17D0042B66
:10272000E5D14FF08C413046FEF72CFBFEF716FD4D
:10273000394985B214E0102BD9D14FF08A41304687
:10274000FEF720FBFEF70AFD344985B208E04FF0A2
:102750008D413046FEF716FBFEF700FD304985B28D
:102760003046FEF70FFBFEF7F9FC2B0A80B28DF81E
:102770000430E2074FEA10238DF805508DF806303B
:102780008DF8070033D4A30710D502214FF4EC7065
:1027900001AAFFF76BFE0028A9D102214FF4947023
:1027A0000DF10602FFF762FE0028A0D114F004002C
:1027B0009FD002214FF4EE7001AAFFF757FE0028C8
:1027C00095D102214FF496700DF10602FFF74EFEEF
:1027D000003818BF012040428BE74FF08B41304654
:1027E000FEF7D0FAFEF7BAFC0E4985B2B8E702212F
:1027F0004FF4EA7001AAFFF739FE00287FF477AFA3
:1028000002214FF492700DF10602FFF72FFE00280F
:10281000B9D06CE7000048430000C0450000C04448
:10282000000040460000404510F0010318BF30236F
:1028300007B582078DF8073048BF9DF807304FF085
:10284000010144BF43F00C038DF80730430748BF34
:102850009DF807300DF1070248BF43F003034FF422
:10286000A47048BF8DF80730FFF700FE03B05DF895
:1028700004FB042807B528BF0420012838BF012025
:1028800001388DF8070001210DF1070240F24F10C9
:10289000FFF7ECFD03B05DF804FB052307B5B0FBC3
:1028A000F3F00221030A8DF8050001AA4FF4EF703E
:1028B0008DF80430FFF7DAFD03B05DF804FB052363
:1028C00007B5B0FBF3F00221030A8DF8050001AA59
:1028D0004FF4ED708DF80430FFF7C8FD03B05DF8DC
:1028E00004FB4FF47A7307B590FBF3F041430B16EA
:1028F0008DF804300B148DF805308DF807100B128D
:1029000001AA04214FF4AE708DF80630FFF7AEFD3A
:1029100003B05DF804FB052307B5B0FBF3F002211B
:10292000030A8DF8050001AA4FF4AD708DF804304C
:10293000FFF79CFD03B05DF804FB052307B5B0FB72
:10294000F3F00221030A8DF8050001AA4FF4AC70E0
:102950008DF80430FFF78AFD03B05DF804FB00003A
:102960001FB520B105B05DF804EBFFF76DBE084A56
:1029700001AB10685168127A03C309211A704FF431
:10298000976001AAFFF772FD05B05DF804FB00BF78
:102990003FA1000807B5B0B1C0238DF80430C223B1
:1029A0008DF80530C4238DF80630C6238DF8073026
:1029B000042101AA40F69820FFF758FDFEF7DEFF3C
:1029C00003B05DF804FB4FF08B330193F0E707B5DC
:1029D000B0B120238DF8043028238DF80530302342
:1029E0008DF8063038238DF80730042101AA40F60F
:1029F0009E20FFF73BFDFEF7C1FF03B05DF804FB2F
:102A00004FF0A3330193F0E72DE9FF4102238DF846
:102A10000430CA238DF80530E3238DF806300923EE
:102A20000446042101AA68208DF80730FFF71EFD37
:102A3000A32314F040088DF804301FBFC0238DF885
:102A40000530C8238DF8063012BFC2238DF805303B
:102A50008DF8063014F4C0768DF807301DBFC423FE
:102A60008DF80830CC23A32319BF8DF80930C62375
:102A70008DF808308DF809308DF80A30A3230A212B
:102A800001AA40F6A7208DF80B308DF80C308DF898
:102A90000D30FFF7EBFC14F003070CBFD823202305
:102AA000012140F6B62001AA8DF80430FFF7DEFCC4
:102AB00014F0200072D0FFF7C7FD9EB1E20570D57B
:102AC000B2238DF804308B238DF80530B6238DF8B2
:102AD00006309B23042140F6A22001AA8DF807307E
:102AE000FFF7C4FCE30767D5F82301AA01214FF4DF
:102AF0000B608DF80430FFF7B9FCFA210720FFF7CF
:102B0000F1FD0720FFF790FE0120FFF7B2FE6420E1
:102B1000FFF7C3FE4FF4FA70FFF7D1FEC8212D482E
:102B2000FFF7DFFE2820FFF7F6FE0A20FFF705FF7C
:102B300014F0020F0CBFD823D923012101AA40F2BF
:102B40003D708DF80430FFF791FC14F0040018BFBD
:102B50000120FFF71FFF14F0100018BF01201E4DC9
:102B6000FFF735FF44F008036B81FEF707FFB8F16C
:102B7000000F2BD185F80E8016B1AB7B0633AB73FB
:102B800014F0140F1EBFAB7B1033AB7317B1AB7BCC
:102B90000433AB73002004B0BDE8F081FFF7E0FE22
:102BA0008BE7B0238DF8043080238DF80530B423F3
:102BB0008DF8063090238DE7D823012101AA4FF428
:102BC0000B608DF80430FFF751FCB1E70623AB73BF
:102BD000D2E700BF09E3CA02700200202DE9F04FDE
:102BE0009946002389B0129EDFF89CA107468846CB
:102BF00093466946139A9AF80E003380FFF7C0F89F
:102C0000054650BBBAF80A3013F0140F00F0B98033
:102C1000019900980CBA4FEA244C0CFB0CFC00BA4A
:102C2000CBF80000001400FB00CC0299039A09BA0B
:102C3000CBF80810091401FB01C112BACBF80C2023
:102C4000121402FB021202F17142B2F1007FCBF8C2
:102C5000044005D9FEF792FE35804FF0FF358CE039
:102C6000328842F4807232801022580634D502F144
:102C70002001694411F8200C511CC9B2203169446B
:102C800011F8201C41EA0021A8F80010911CC9B2DB
:102C90002031694411F8200CD11CC9B2203169449B
:102CA00011F8201C41EA0021A8F80210111DC9B238
:102CB0002031694411F8200C511DC9B220316944FA
:102CC00011F8201C063241EA0021A8F804103188CE
:102CD000D2B241F00801318013F4C07F31D002F14B
:102CE0002001694411F8200C511CC9B220316944FB
:102CF00011F8201C41EA00213980911CC9B2203111
:102D0000694411F8200CD11CC9B22031694411F872
:102D1000201C41EA00217980111DC9B2203169448B
:102D200011F8200C511DC9B22031694411F8201C42
:102D3000063241EA0021B9803188D2B241F07001F7
:102D40003180990716D00DEB02046378E678DA0734
:102D500008D5DAF800302BB106F007010131C6F3CF
:102D6000C200984763781B0704D5DAF804300BB12A
:102D7000B0099847484600F069FB284609B0BDE80D
:102D8000F08F024671E700BF700200201FB50446B5
:102D900003F044FE0828236809D850B101380728F9
:102DA00007D8DFE800F01922062A060606321028A6
:102DB00033D01B4A93420DD101221A4B1A491A7083
:102DC0001A48642203F078FE194B1A68136823F03E
:102DD0000403136004B010BD002200921968009132
:102DE0005968009100996264E3E700220192196832
:102DF0000191596801910199F5E700220292196841
:102E00000291596802910299EDE700220392196834
:102E10000391596803910399E5E70022E3E700BFB6
:102E200000380140540400205C040020F40300201A
:102E30005C03002008B50268094B9A420FD10122B9
:102E4000084B09481A70094B64221980084903F09D
:102E500033FE084B1A68136823F00403136008BD9F
:102E60000038014054040020F40300203003002007
:102E70005C0400205C03002008B50021054B064AD5
:102E800001F0D6FE08B172B6FEE70122034B1A70BC
:102E900008BD00BF810200208C02002080020020BB
:102EA0000222014B1A70704780020020026808B5A8
:102EB000124B1A6042685A608268DA6004229A6093
:102EC00008221A6100221A750D4A00F10C03143011
:102ED00013F8011B834202F8011BF9D1094801F0E4
:102EE00093FE0028FAD0084B054A0449054801F032
:102EF00041FEB0FA80F0400908BD00BFB0020020DA
:102F0000A802002034030020C802002070B5284B1E
:102F1000284E1C68284D86B0002C37D00023274A45
:102F2000CDE90223336853B901223260244A01A853
:102F3000CDE90423FFF7BAFF0A2001F0F1FC2B686A
:102F400053B901222A601F4A01A8CDE90423FFF7E3
:102F5000ADFF0A2001F0E4FC1B4B01A804931B4BBE
:102F60001B681BBA0593FFF7A1FF022001F0D8FCF4
:102F7000174B01A80493174B1B681BBA0593FFF767
:102F800095FF052001F0CCFC06B070BD0E4B01A8EA
:102F9000CDE90434FFF78AFF0A2001F0C1FC0C4B95
:102FA00001A8CDE90434FFF781FF34602C60E8E725
:102FB00058040020500400203C04002001000006BA
:102FC000230D2001230D20022300200148040020AE
:102FD000230020024C0400203C4B10B51B683C4CE5
:102FE000002B69D010213B4802F0D2FA10B901221F
:102FF000394B1A602021374802F0CAFA10B9012271
:10300000364B1A60236833B9354B1A68354B1A6052
:103010000123236010BD012B0FD12F4B1B683BB147
:103020004FF4FA63304A1360304A13600223F0E72A
:103030002A4B1B68D3B12E4BF4E7022B18D1284B37
:103040001968284B1868FDF793FDFEF761F8002812
:10305000B8BF4042FDF742FE00231F4A25491360D6
:103060001E4A1360FEF74AF80028D3D00323D0E7A6
:10307000032B17D104F03CFF0A2390FBF3F202FB71
:1030800013001B49184A05289ABF11604FF4FA62D1
:103090004FF4FA60154B86BF106019601A60236800
:1030A0000133B6E7042BB5D10B4B1A680B4B1B68E9
:1030B0001343AFD00023ACE723600F4B1B68002BFA
:1030C000A8D1094A1360094A1360A3E758040020F5
:1030D0004004002000080140C4040020C004002077
:1030E0006C020020C8040020480400204C0400208A
:1030F00030F8FFFF0000B4424404002010B590B047
:103100001422002108A804F08BFA1422002101A83F
:1031100004F086FA02244FF480330122CDE90D43F6
:10312000CDE906234FF4E01306A80A920F9302F0AC
:10313000A3FE08B172B6FEE70F23CDE901344FF4C8
:1031400080630390CDE90430214601A803F056F8CE
:1031500008B172B6FEE710B010BD0000F0B5A44C87
:1031600097B001F0B9FBFFF7C9FF102200210CA8AE
:1031700004F056FAA369012243F01003A361A36986
:103180004FF4005103F010030893089BA36999487A
:1031900043F02003A361A369002503F020030993F2
:1031A000099BA369012643F00403A361A3690227D5
:1031B00003F004030A930A9BA36943F00803A36185
:1031C000A36903F008030B930B9B02F0E7F90022BD
:1031D0000121894802F0E2F94FF4005385480CA917
:1031E000CDE90C36CDE90E5702F08AF8F02383487A
:1031F0000CA9CDE90C350E9602F082F87E480CA998
:10320000CDE90C66CDE90E5702F07AF84FF47C4315
:1032100079480CA9CDE90C350E9602F071F8636976
:103220002A46334363616369294633400F2007937D
:10323000079B01F0A5FE0F2001F0D4FE4FF4E1330F
:103240006F4CDFF8C0E12046C4E900E30C23C4E979
:103250000255C4E905352561E56103F029F908B196
:1032600072B6FEE70423684D684F4FF4602CC5E941
:1032700000734FF48013C5E90200A861A8832846B3
:10328000C5E904C301F05EFB08B172B6FEE7CDE903
:103290001100CDE90C00CDE90E0010900CA92846D4
:1032A0001396149601F0C9FB08B172B6FEE72846E2
:1032B00001F032FC08B172B6FEE748F6024128463A
:1032C00001F032FD034608B172B6FEE75048514A9C
:1032D0005149C0E90233C0E900124FF48042C0E90D
:1032E0000633C0E90423036202F080FA08B172B623
:1032F000FEE74A496422204603F0DEFB484B40F2D9
:10330000DC501A68136823F00403136001F008FB13
:103310004FF0FF3307224349204603F0F8F8FEF749
:10332000F5F80546E8B1404E324D4FF0FF333146D7
:103330000722204603F0EBF800224FF40051284604
:1033400002F02CF94FF4FA7001F0EAFA2846012253
:103350004FF4005102F022F940F2DC5001F0E0FAA3
:10336000E3E74FF0FF3307222046304903F0CFF860
:103370000A213020FEF74EF92D4B2C461E602D4FB2
:103380002D4E2E4DFEF7A6F828B1FEF7E1F810B944
:103390000120FEF791F9FFF71FFEFFF7B7FD01F0DF
:1033A000B9FA001BB0F57A7FECD93868FDF73CF824
:1033B000CDE904013068FDF737F8CDE90201204B73
:1033C0001868FDF731F81F4ACDE90001642128464D
:1033D00001F024FA2846FCF7BBFE4FF0FF3382B21F
:1033E0002946074803F093F801F094FA0446C9E728
:1033F0000010024000100140000C01400008014094
:10340000F403002000380140340300200064004031
:10341000A0030020A0860100005400405C040020AE
:103420005C0300203FAD000847AD00084FAD000829
:10343000580400206C02002050020020CC02002022
:103440006402002057AD000872B6FEE710B50446CE
:1034500001F060FA2060002010BD08B501F060FAAC
:10346000002008BD2DE9F04106460F4601F052FA52
:1034700001240546DFF824803146404602F088F8F2
:10348000B84200D00CB9BDE8F08101F043FA441B0A
:103490000A2C8CBF0024012400BFEDE7000C014082
:1034A0002DE9FF413A4F40263A68384613684FF0FD
:1034B000000823F00103136002F040FA1123802575
:1034C000344C69462046CDE90138009601F018FFDA
:1034D00069462046009501F013FF29462046012247
:1034E00002F05CF801223146204602F057F83046DF
:1034F0000121FFF7B7FF28460121FFF7B3FF42463E
:103500002946204602F04AF841462846FFF7AAFF1E
:1035100042463146204602F041F841463046FFF728
:10352000A1FF01223146204602F038F83046012141
:10353000FFF798FF01222946204602F02FF828467F
:103540000121FFF78FFF122369462046CDE9006372
:1035500001F0D6FE69462046009501F0D1FE3A689A
:10356000136843F40043136000BF3A68136823F400
:103570000043136000BF3A68136843F0010313600F
:1035800000BF384602F032F904B0BDE8F08100BF58
:10359000A0030020000C0140F0B5054602F1080030
:1035A00083B000F4FC7002AFADEB000D8DF8081095
:1035B0000DF109001946144604F024F8FF2302AE69
:1035C00000933246631C0648690002F0D1F90446B4
:1035D00008B1FFF765FF20460437BD46F0BD00BFC8
:1035E000A00300202DE9FF414FF0FF0845008DF8B2
:1035F0000F1017461E46294601230D48CDF80080BE
:103600000DF10F0202F0B4F9044610B1FFF748FFC4
:103610000AE03B46324629460548CDF8008002F0D4
:103620007FFA04460028F1D1204604B0BDE8F081BD
:10363000A00300200E4B82B09A6942F001029A6109
:103640009A6902F001020092009ADA6942F080520F
:10365000DA61DB69074A03F080530193019B5368E9
:1036600023F0E06343F00073536002B0704700BF83
:10367000001002400000014010B5044686B0102240
:10368000002102A803F0CCFF2268224B9A423ED1CF
:1036900003F5D633DA69204842F00072DA61DA695C
:1036A00002A902F000720092009A9A6942F00802A0
:1036B0009A619B6903F008030193019B4FF48073A7
:1036C000029301F01DFE4FF400720223CDE90223A4
:1036D0000323114802A9059301F012FE0F4A14209A
:1036E000536823F4C04343F0E06343F480435360E2
:1036F0000022114601F044FC142001F073FC00226A
:103700001620114601F03CFC162001F06BFC06B0BF
:1037100010BD00BF00640040000C014000000140EB
:1037200010B5044686B01022002102A803F078FFED
:103730002268114B9A421CD1104CC022A369104838
:1037400043F00803A361A36902A903F008030093EF
:10375000009B1223CDE902230323059301F0D0FD42
:10376000E36943F40013E361E36903F40013019395
:10377000019B06B010BD00BF005400400010024085
:10378000000C014008B50268094B9A420ED1094A63
:103790004021D369084823F40013D36101F08AFE65
:1037A000BDE808408021044801F084BE08BD00BF88
:1037B0000054004000100240000C014070B5064665
:1037C00086B01022002102A803F02AFF3268244BA1
:1037D0009A4243D103F558439A69224842F4804201
:1037E0009A619A6902A902F480420092009A9A6949
:1037F000002542F004029A619B694FF4007203F0C5
:1038000004030193019B0223CDE9022303230593C3
:1038100001F076FD4FF48063124802A9124CCDE905
:103820000235049501F06CFD104B2046C4E90035CB
:103830008023C4E90555C4E90335A560E56101F0BD
:10384000F3FB08B1FFF700FE002225201146F463C8
:10385000666201F095FB252001F0C4FB06B070BD47
:1038600000380140000801405C030020580002407D
:10387000FEE7FEE7FEE7FEE7FEE7704770477047AA
:1038800001F03CB8014801F0A7BC00BF5C03002078
:10389000014801F065BA00BF34030020FFF7F8BF0C
:1038A000014802F069BF00BFF40300200120704707
:1038B00008B503F06DFE162303604FF0FF3008BD1E
:1038C00008B503F065FE16230360FEE770B50D46EC
:1038D00014460E46731B9C4201DC204670BDAFF3BC
:1038E000008006F8010BF5E770B50D4614460E464C
:1038F000731B9C4201DC204670BD16F8010BAFF330
:103900000080F5E74FF0FF3070474FF40053002080
:103910004B60704701207047002070470B4A0346F8
:10392000116810B509B90A491160106809490A4CB3
:103930000344091B8B4206D903F02AFE0C230360C3
:103940004FF0FF3010BD1360FCE700BFCC04002037
:10395000E8040020005000200004000070479A4254
:1039600038BF8854704770472DE9F84F9946DDE914
:103970000B470D9B15469A0706468B4622D02A46D2
:103980000A9901EB04081444A2421FD10D9B9B0726
:1039900005D5A2EB0508474505EB08041FD82046CE
:1039A000BDE8F88F4B4659462020B04708F1010882
:1039B000B8450AEB0802F5D33A1BBC4288BF002287
:1039C0002A44DDE7A046A5EB040AF1E702F1010A6B
:1039D0004B46594618F8010DB0475246D4E74B46BE
:1039E000224659462020B04708F10108D3E72DE9C7
:1039F000F047DDE90D7616F0020F9DF828E0DDE9CD
:103A00000854DDE90BC81FD106F001094FB1B9F127
:103A1000000F06D0BEF1000F02D116F00C0F00D03F
:103A2000013F4FF0300A04E0202C04D005F804A038
:103A30000134A045F8D84FF0300AB9F1000F03D097
:103A4000BC4201D21F2C34D916F0100F1FD016F42F
:103A5000806F33D194B3444501D0BC422ED1B4F130
:103A600001082AD0BCF1100F33D1023C16F0200F10
:103A700031D11F2C15D84FF0780C05F804C0013453
:103A80001F2C0ED84FF0300C05F804C001341F2C49
:103A900007D8BEF1000F23D04FF02D0C05F804C05D
:103AA0000134CDE90A76CDE90854BDE8F047FFF7C7
:103AB0005BBF05F804A00134BFE74446BCF1100F1A
:103AC000D4D0BCF1020FDBD11F2CEAD84FF0620C2E
:103AD000D3E74446F5E71F2CE3D84FF0580CCCE76A
:103AE00016F0040F02D04FF02B0CD7E716F0080F9A
:103AF000D7D04FF0200CD1E72DE9F04391B0189DBD
:103B00001A9E1D9F0DB927F010077C0500D515B32F
:103B100017F0200F14BF4FF0410E4FF0610EAC466E
:103B200000250DF12008AEF10A0EBCFBF6F906FBEC
:103B300019C95FFA89F4B9F1090F94BF303474449C
:103B4000E4B2B44508F8014B05F10105BCFBF6F4FD
:103B500001D3202D10D11C9C069705941B9CCDE908
:103B600003649DF86440CDE9015408AC0094FFF76C
:103B70003EFF11B0BDE8F083A446D6E72DE9F04F33
:103B800095B0269D9946DDE91E76DDE922AB57EA20
:103B9000060308BF25F010050A926A05CDE9080161
:103BA00002D557EA060338D015F0200F14BF412381
:103BB000612300240A3B0DF130080B9352465B460B
:103BC00038463146FDF7EAFAD2B2092A8ABF0B9B82
:103BD0003032D2185745D2B276EB0B0304F1010410
:103BE00008F8012B01D3202C14D1259B08980593AC
:103BF000249B0695CDE903A3DDE909129DF88030E9
:103C0000CDE901430CAB00934B46FFF7F0FE15B036
:103C1000BDE8F08F07460E46D0E70024E5E7000038
:103C20002DE9F04F93B0CDE90932DDE91D8A1C9BE7
:103C30008B4606931F9B069A0B93209B0890079335
:103C4000104643464146FCF7AFFE80B14FF0FF32CD
:103C50004146104B0698FCF7CFFE40B94FF0FF32BB
:103C60006FF4801341460698FCF7A8FEA0B1079BAD
:103C7000594620930B9B069ACDE91EA3434608980C
:103C8000CDE91C23DDE9093213B0BDE8F04F00F0A7
:103C90009BB900BFFFFFEF7F00220023414606983B
:103CA000FCF78CFE002800F04281069C08F10045DC
:103CB000079BC5F30A5013F48063A0F2FF3008BFDE
:103CC0004FF0060A0F93FCF79DFBA9A3D3E900234D
:103CD000FCF702FCA8A3D3E90023FCF747FAC5F3DD
:103CE0001306CDE90C0146F07F510022B04B20466F
:103CF00041F44011FCF738FAA1A3D3E90023FCF703
:103D0000EBFB02460B46DDE90C01FCF72FFAFCF752
:103D100093FE8146FCF776FB9BA3D3E9002306467E
:103D20000F46FCF7D9FB0022A24BFCF71FFAFCF769
:103D300083FE97A3D3E9002339460E903046FCF763
:103D4000CBFB06460E980F46FCF75CFB92A3D3E92B
:103D50000023FCF7C1FB02460B4630463946FCF710
:103D600003FA02460B4606460F46FCF7B5FB324601
:103D70003B46CDE90C0130463946FCF7F7F9002205
:103D8000CDE91001DDE90C018B4BFCF7CFFC0022E3
:103D90008A4BFCF7EBF902460B46DDE90C01FCF718
:103DA000C5FC0022864BFCF7E1F902460B46DDE933
:103DB0000C01FCF7BBFC32463B46CDE90C01002070
:103DC0004FF08041FCF7D0F902460B46DDE90C01CB
:103DD000FCF7CCF902460B46DDE91001FCF7A6FC26
:103DE0000022784BFCF7C2F90E9B002203F2FF364B
:103DF0003305FCF771FB22462B4606460F46FCF7BF
:103E0000FBFD002840F09780CDE90C6709F16303C2
:103E1000C72B079B34BF04260526190522D560A3AE
:103E2000D3E9002320462946FCF7DCFD002800F0FA
:103E30008D805DA3D3E9002320462946FCF7BEFD13
:103E4000002800F083800026CA45CCBFAAEB090AEF
:103E50004FF0000AB146079BC8BF0AF1FF3A43F48E
:103E6000806307930B9B9E4238BF9F1B079B28BF15
:103E7000002713F002030E9302D0002E18BF002774
:103E8000B9F1000F07D0DDE90C2320462946FCF7E5
:103E90004DFC04460D460022002341460698FCF7DF
:103EA0008DFD10B105F100431D46079B224623F40A
:103EB0000063CDE903732B465946CDE90023DDE9C4
:103EC00009320898CDF808A000F07EF8024656B3F3
:103ED000079B441C13F0200F14BF45206520594652
:103EE000099B089DA8470523002205930A2389EA18
:103EF000E970CDE90232A0EBE9704FEAD973013ED7
:103F0000224601930090099B594608980496FFF7B2
:103F1000F3FD0E9B024633B10A9BC41A0A9B1A1981
:103F20000B9BA3421BD8104613B0BDE8F08F069A36
:103F300045461446BCE60022304639461F4BFCF786
:103F4000F5FB09F1FF39CDE90C015FE7BAF1000F8C
:103F500088D00F9B002B85D00AF1FF3A82E75946A3
:103F60002020099B089DA8470134D7E7AFF30080C4
:103F7000FB799F501344D33FB3C8608B288AC63F58
:103F800061436F63A787D23F71A379094F930A40BA
:103F90001655B5BBB16B0240EF39FAFE422EE63F33
:103FA0002D431CEBE2361A3F0000000080842E41B6
:103FB0000000F83F0000E03F00002C4000002440DB
:103FC000000018400000F03F2DE9F04F97B0DDE908
:103FD00020ABCDE90723DDE922530F460690059378
:103FE00052465B4650465946249EFCF7DDFC78B9A4
:103FF000059B2396229303232193AF4B39460698C2
:104000002093DDE9072317B0BDE8F04FFFF7ACBC04
:104010004FF0FF326FF4801350465946FCF7CEFC48
:1040200030B1059B2396229304232193A34BE5E70C
:104030004FF0FF3250465946A14BFCF7DDFC70B102
:10404000A04A06F00403002B08BF03229E4B1CBFAE
:104050001346042205992396CDE92121CEE7504647
:1040600091A3D3E900235946FCF7C6FC38B990A3C5
:10407000D3E9002350465946FCF7A0FC70B13946FD
:10408000059B0698CDE92253DDE90723CDE920AB56
:10409000249617B0BDE8F04FFFF7C2BD0022002301
:1040A00050465946FCF78AFC00287ED05B465246B3
:1040B00000200021FCF758F8012382468B46099323
:1040C00016F4806F08BF06253021A9460EABA5F176
:1040D0002002B9F1090FA5EB090406D909F1FF394E
:1040E0004A4503F8011BF4D1202459465046FCF7F9
:1040F000A3FC764B054603EBC903D3E90023CDE9C6
:104100000A23FCF77FF902460B4650465946FCF756
:104110002BF8DDE90A23FCF7DFF902460B46CDE96F
:104120000C23FCF7B1FC8046FCF75CF902460B4619
:10413000DDE90C01FCF718F802460B46CDE90C232B
:104140000022634BFCF758FC88B308F10108404695
:10415000FCF748F902460B46DDE90A01FCF738FC9A
:1041600010B14FF000080135B9F1000F51D12846C8
:10417000FCF748F902460B4650465946FBF7F4FF58
:104180000022534B80468946FCF718FC30B10022D0
:10419000404649464E4BFCF72FFC10B1E80700D5CE
:1041A00001350EAB0A22234459E0099088E700222A
:1041B000DDE90C01464BFCF701FC0028D4D1B8F135
:1041C000000F02D018F0010FCED008F10108CBE7A4
:1041D000B8FBF1F001FB1082B8F1090F02F13002D7
:1041E00009F1FF3904F1010403F8012B27D830212C
:1041F000A1440EAA202C11D04C4504F1010320D17A
:1042000004F158020DEB02042E2204F8202C1C4667
:10421000C7E70A210EAB2344202CD9D106F00303B3
:10422000012B0EAB33D1059A8AB3099A12B916F055
:104230000C0F02D0059A013A0592302214E0804614
:10424000EAE7A1541C46D5E795FBF2F102FB1155B4
:10425000303503F8015B01340D460029DED0202CF7
:10426000F2D1DBE71A5501340599A1420FD9202C70
:10427000F8D1059A0093CDE90142DDE907233946DB
:1042800006980396FFF770FB17B0BDE8F08F202C5F
:10429000EFD0099AF2B12D2104F158026A4402F8D4
:1042A000201C0134E5E700BF0000000065CDCD41D2
:1042B0000000000065CDCDC190AD000894AD0008B0
:1042C000FFFFEF7F8BAD000887AD0008A0AD0008B1
:1042D0000000E03F710704D504F158022B216A4425
:1042E000DDE73207C5D504F1580220216A44D6E73C
:1042F0002DE9F04F91B00A93B94BB1F1000B904604
:1043000014BF8146994600251A9E0A9B187870B9F9
:10431000454538BF2A46434659464FF0000028BF5E
:1043200008F1FF32C847284611B0BDE8F08F0A9B5C
:10433000252803F101030A9306D02A46434659462D
:104340006C1CC8472546E0E7002206E02D2B14D060
:10435000302B0CD142F001020A900A9810F8013B70
:104360002B2B0DD0F2D8202B0DD0232B0ED0A3F168
:104370003004092C28D8002710E042F00202EBE7B5
:1043800042F00402E8E742F00802E5E742F01002DA
:10439000E2E70A2101FB07370A90303F0A9810F83C
:1043A000013BA3F13004092CF3D90A9B1B782E2B77
:1043B00067D10A9B42F48062581C5B78A3F13004F9
:1043C000092C55D8002411E02A2B08D156F8047B7B
:1043D0000A90002FBCBF42F002027F42E5E70027AF
:1043E000E3E70A21604601FB0434303C84461CF8B4
:1043F000013BA3F1300EBEF1090FF2D9034613F8C9
:1044000001CBBCF16C0F48D03ED8BCF1680F4DD049
:10441000BCF16A0F55D0034613F8010B78280A93B4
:104420008BD8572850D8452805D086D9462800F083
:104430002681472881D100F0DF03472B04BF00F01D
:10444000FD0042F40062452808BF42F02002CDE999
:104450000372073626F007060294F6E8022359464F
:10446000CDE90023484643462A46FFF7D9FB18E129
:104470002A2B07D156F8044B0A9824EAE474023038
:10448000BCE70A980024B9E7BCF1740F02D0BCF174
:104490007A0FC0D142F48072BEE790F801C0BCF13F
:1044A0006C0FF7D142F44072831CB5E790F801C05D
:1044B000BCF1680F02D042F08002ADE742F0C002CA
:1044C000F2E742F40072A7E7A0F15803202B3FF671
:1044D00034AF01A151F823F05D4500083B430008CB
:1044E0003B4300083B4300083B4300083B430008B4
:1044F0003B4300083B4300083B4300083B430008A4
:104500005D450008A74600085D45000837440008DF
:1045100083460008374400083B4300085D45000817
:104520003B4300083B4300083B4300083B43000873
:104530003B4300085D450008E54700083B43000891
:104540003B430008214700083B4300085D45000845
:104550003B4300083B4300085D450008782800F015
:104560005781582800F052816F2800F0538162284B
:1045700000F0528169284FF00A0322F0100203D0A4
:10458000642801D022F00C02510548BF22F001023C
:10459000692802F4007101D064283ED111B30736B6
:1045A00026F00706B24676685AF8080B04930023F3
:1045B0000593F30F002E0293CDE90772034606948C
:1045C00002DA434266EB4606CDE9003643462A4608
:1045D00059464846FFF7D2FA0546564695E600BFCB
:1045E00067390008D10506F1040A0CD53068CDE919
:1045F0000472CDE9023400284FEAD0730193B8BFAA
:104600004042009024E012F0400F306801D0C0B268
:10461000EDE7160648BF00B2E9E771B1CDE90772D0
:104620000022CDE90432073626F0070A06940292EA
:10463000FAE80223CDE90023C8E7D00506F1040A11
:104640000DD5CDE90472CDE90234019133680093B0
:1046500043462A4659464846FFF74EFABCE712F051
:10466000400F306807D0C0B2CDE902340023CDE955
:1046700004720193C5E7110648BF80B2F4E742F027
:104680002002CDE90372073626F007060294F6E809
:1046900002235946CDE90023484643462A46FFF700
:1046A00093FC054631E612F0020424D04FF0010AD3
:1046B00056F8040B6B1C0B932A4643465946C0B26E
:1046C000C8475CB354460B9A1EE043465946202027
:1046D000C8470AEB05020AF1010A5745F5D8002F31
:1046E00007F1FF3308BF002307F1010A1D4408BF8B
:1046F0004FF0020ADCE7A246EBE7551C4346594659
:104700002020C8472A460134BC42F6D3A7EB0A034F
:10471000574538BF00230B9A1A440B920B9DF4E5C2
:10472000334653F8046B002C0B9314BF23464FF011
:10473000FF3331463344087808B1994211D112F45D
:104740008063A1EB060A0C9302D0A24528BFA246C3
:1047500012F002030D931BD1AAEB05032A460F9317
:1047600008E00131E7E7531C0E93594643462020E9
:10477000C8470E9A0F9BD3189F42F4D8A7EB0A03A1
:10478000574538BF00230AF101021D4403EB020A1A
:10479000AB1B0E9304E01C4643462A465946C847C5
:1047A0000E9B9D1916F8010B28B10C9B002BF3D022
:1047B000631E002CEFD10D9B93B12A46AAEB050492
:1047C00005E0561C434659462020C8473246131977
:1047D000BB42F6D3A7EB0A03574538BF00231D445D
:1047E0000B9E92E5082342F02102CDE90343059296
:1047F00000231022CDE9013256F8043B2A460093EB
:10480000594643464846FFF777F94AE742F0200207
:104810001023B7E60823B5E60223B3E60CB41FB5B0
:1048200006AC54F8043B0A4600940146044803943D
:10483000FFF75EFD04B0BDE8104002B0704700BF56
:104840005F390008FFF78AF80B480C490C4A00232F
:1048500002E0D458C4500433C4188C42F9D3094A36
:10486000094C002301E013600432A242FBD302F0A2
:1048700095FEFEF773FC7047000000201402002034
:10488000BCB2000814020020E4040020FEE700008F
:1048900038B50E4B054618784FF47A73B3FBF0F336
:1048A0000B4A1068B0FBF3F000F0AAFB044658B9BD
:1048B0000F2D09D8024629464FF0FF3000F060FB6B
:1048C0002046044B1D6038BD0120FCE73C00002061
:1048D0003800002040000020074A08B51368032074
:1048E00043F01003136000F039FB0F20FFF7D0FFF7
:1048F000FEF7A0FE002008BD00200240034A044B42
:1049000011681B780B441360704700BFD00400206F
:104910003C000020014B1868704700BFD004002005
:1049200038B50446FFF7F6FF0546631C1EBF044B6F
:104930001B78E418FFF7EEFF431BA342FAD338BD00
:104940003C00002038B5044600286ED090F8203096
:104950000BB9FEF791FE2268136843F00103136060
:10496000FFF7D8FF054623685A68D10751D51A6862
:1049700022F002021A60FFF7CDFF054623685A684D
:10498000920754D4227E0020012A1A680CBF42F0FC
:10499000800222F080021A60627E012A1A680CBF2F
:1049A00042F0400222F040021A60A27E012A1A68F8
:1049B0000CBF42F0200222F020021A60E27E012A9F
:1049C0001A680CBF22F0100242F010021A60227F17
:1049D000012A1A680CBF42F0080222F008021A608D
:1049E000627F012A1A680CBF42F0040222F004021E
:1049F0001A60D4E902210A4321690A4361690A4322
:104A0000616801390A43DA610123606284F8203069
:104A100038BDFFF77FFF401B0A28A4D9636A43F41F
:104A200000336362052384F820300120F0E7FFF7AC
:104A300071FF401B0A28A1D9F0E770B590F820302B
:104A4000013B012B62D801240368D3F8002242F015
:104A50000102C3F800224A69D3F81C5202F01F0079
:104A600004FA00F025EA0005C3F81C52CD69C443DE
:104A700085BBD3F80C52CE682540C3F80C528D8804
:104A800003EBC20245EA0645C2F840528E680D8823
:104A900045EA0645C2F844528A696ABBD3F8042243
:104AA0002240C3F804220A6952BBD3F814221440EE
:104AB000C3F814420A6A012A02BFD3F81C22104329
:104AC000C3F81C020020D3F8002222F00102C3F830
:104AD000002270BD012DDFD1D3F80C520E680543C2
:104AE000C3F80C528D8803EBC20245EA0645C2F8B2
:104AF00040528E688D89CBE7D3F804220243D0E779
:104B0000D3F814220243C3F81422D3E7436A43F4D0
:104B1000802343620120DCE770B590F82030044622
:104B2000012BDDB220D10223026880F82030136807
:104B300023F001031360FFF7EDFE064623685B6870
:104B400013F0010302D11D4663620BE0FFF7E2FEA2
:104B5000801B0A28F2D9636A43F400336362052399
:104B600084F82030284670BD436A012543F40023B1
:104B70004362F7E7F0B5054690F820002E6801384B
:104B80000128B4683AD814F0E05F4FF0010030D04B
:104B9000C4F30164A0401860D1E9020704F11803CE
:104BA00010BB086847EA40501B01F050200106EB9B
:104BB0000413064400200D69C3F88451097D0129BE
:104BC00002BFD3F8841141F48071C3F88411516895
:104BD000C6F88C111268C6F88821D3F8802142F0FB
:104BE0000102C3F88021F0BD4D68384340EAC5009A
:104BF000DAE76B6A43F400136B62F4E76B6A012037
:104C000043F480236B62EEE790F82030013B012BE8
:104C10000CD8036898689A689B681201C0F380609A
:104C200048BF0130DB0002D50130704700207047DB
:104C3000F0B590F82040013C012C71D8066841B9CC
:104C4000F468A40707D1436A43F4001343620120C8
:104C50005BE03469F5E706EB0115D5F8B0710C019E
:104C600007F004079760002F50D1D5F8B0717F0D81
:104C70001760D5F8B071264407F00207D760D5F861
:104C8000B4713F074EBF0827D5F8B47107F00F077E
:104C90001761D5F8B471D5F8B451C7F307272D0CB7
:104CA00097615561D6F8B8211A7002682244D2F88B
:104CB000B821120A5A7002682244D2F8B821120CA4
:104CC0009A7002682244D2F8B821120EDA70026893
:104CD0002244D2F8BC211A7102682244D2F8BC21C5
:104CE000120A5A7102682244D2F8BC21120C9A713D
:104CF00002682244D2F8BC21120EDA71036851B95D
:104D0000DA6842F02002DA600020F0BDD5F8B07118
:104D1000FF085760ADE71A6942F020021A61F3E715
:104D2000436A43F4802391E790F82030013B012B44
:104D300005D8026800205369194351617047436ADE
:104D400043F48023436201207047704770477047E7
:104D5000704770477047704770477047704770479B
:104D60002DE9F84F036805465E69D3F8049016F004
:104D700001049F68D3F80CB0D3F810A0D3F81880C2
:104D800022D017F0010407D00122B9079A6040F140
:104D9000A580FFF7DAFF0024FB0509D54FF48072E8
:104DA0002B68B8059A6040F1A7802846FFF7CEFF30
:104DB000FB0309D54FF480322B68B8039A6040F1A9
:104DC000A9802846FFF7C3FF330707D51BF0100F54
:104DD0001FBF10222B6844F40074DA60770708D5EF
:104DE0001BF0080F05D008222B682846DA60FFF771
:104DF000B2FFB00706D52B68DB68990702D02846BA
:104E0000FEF73AF8720607D51AF0100F1FBF1022EE
:104E10002B6844F480641A61B30608D51AF0080FB1
:104E200005D008222B6828461A61FFF796FFF7067F
:104E300006D52B681B69980702D02846FFF78CFF20
:104E4000B10308D519F0100F05D010222B682846A1
:104E50005A60FFF783FFF20308D519F0080F05D059
:104E600008222B6828465A60FFF779FF33042CD5B7
:104E700019F0040F2A6826D0F70504D518F0010FA1
:104E800018BF44F00104B00504D518F0020F18BF94
:104E900044F00204710504D518F0040F18BF44F063
:104EA000040433050FD518F070030CD0402B4FD0FD
:104EB0003ED8202B46D0302B47D0102B3FD09369C3
:104EC00023F070039361042353602CB16B6A28466E
:104ED0001C436C62FDF7E4FFBDE8F88F7A0705D448
:104EE00017F0080405D1FFF733FF55E74FF40064CE
:104EF00052E74FF480544FE7790502D544F400544B
:104F000056E73A0502D544F4804451E72846FFF7B6
:104F100020FF4DE7790302D544F4004454E73A03F7
:104F200002D544F480344FE72846FFF713FF4BE7E0
:104F3000502B10D0602BC2D144F48074BFE744F0F2
:104F40000804BCE744F01004B9E744F02004B6E7D5
:104F500044F04004B3E744F08004B0E7074903029B
:104F6000CA6803F4E06322F4E0621204120C1343F3
:104F700043F0BF6343F40033CB60704700ED00E0C3
:104F8000164B30B5DC68C4F30224C4F10703251DB9
:104F9000042B28BF0423062D4FF0FF3598BF0024B3
:104FA00005FA03F388BF033C21EA0303A34005FA93
:104FB00004F422EA0402002843EA0203ACBF00F131
:104FC0006040074A4FEA0313DBB2ABBF00F5614014
:104FD00000F00F0080F80033135430BD00ED00E006
:104FE00014ED00E0002808DB0123420900F01F0057
:104FF00003FA00F0014B43F82200704700E100E0A3
:105000000138B0F1807F0BD24FF0E023F021054A48
:10501000586182F823100020072298611A617047B6
:105020000120704700ED00E010B548B3142201687C
:10503000144B0B44B3FBF2F39B000364124BC363AA
:10504000022380F82130D0E901342343C4680A6880
:105050002343046922F47F522343446922F030023F
:10506000234384692343C469234313430B60012210
:105070000023836380F8203080F82120184610BD7B
:105080000120FCE7F8FFFDBF00000240F0B590F8FA
:105090002040012C34D0012480F8204090F8214099
:1050A0000026012CE5B24FF0020427D180F8214000
:1050B00004688663266826F001062660D0E90F673B
:1050C000BD40756063604368102BC36A0BBFA2606C
:1050D000A160E160E2604BB1236843F00E03002061
:1050E0002360236843F001032360F0BD236823F0AD
:1050F00004032360236843F00A03F0E780F820608C
:105100000220F2E790F82130022B06D004238363BB
:10511000002380F82030012070470368C16B1A68B3
:1051200022F00E021A601A6822F001021A600122AF
:10513000036C02FA03F34B60002380F8212080F80F
:10514000203018467047000010B590F82130022B2F
:1051500003D004238363012010BD03681A6822F082
:105160000E021A601A6822F001021A60184A93426D
:105170001FD0143293421ED0143293421DD01432E9
:1051800093421DD0143293421DD0143293420CBF6F
:105190004FF480134FF080730E4A002453600123B4
:1051A00080F82130436B80F820407BB1984720463F
:1051B000D2E70123F0E71023EEE74FF48073EBE72B
:1051C0004FF48053E8E74FF48033E5E71846C3E730
:1051D000080002400000024070B40425C66B026C57
:1051E0003468036895402542196832D04D0730D5A0
:1051F0001A6896065EBF1A6822F004021A603E4AD8
:10520000934219D01432934218D01432934217D0DB
:105210001432934217D01432934217D0143293426F
:105220000CBF4FF480034FF08063344A5360C36A6D
:10523000002B5ED070BC18470423F6E74023F4E748
:105240004FF48063F1E74FF48043EEE74FF480239F
:10525000EBE702259540254235D08D0733D51A68F6
:10526000940606D41A6822F00A021A60012280F815
:105270002120214A934219D01432934218D014327B
:10528000934217D01432934217D01432934217D05E
:10529000143293420CBF4FF400134FF00073174ABF
:1052A0005360002380F82030836AC1E70223F6E7C9
:1052B0002023F4E74FF40073F1E74FF40053EEE7D7
:1052C0004FF40033EBE708259540254211D009073C
:1052D0000FD5196821F00E011960012303FA02F2BB
:1052E0007260836380F82130002380F82030036BE4
:1052F0009EE770BC704700BF0800024000000240FB
:105300002DE9F74F00221646644F654BDFF894C134
:10531000DFF894E10D6835FA06F402D103B0BDE878
:10532000F08F4FF0010808FA06F805EA080438EA99
:1053300005057BD14D68032D07D8013D022D00F2F4
:105340008880DFE805F0969BA100122D00F099807F
:105350006ED8112D00F08F80FF2C98BF82464FF041
:105360000F0988BF00F1040A4FEA8605DAF80080C9
:1053700088BF203D09FA05FB28EA0B0802FA05F56B
:1053800048EA0505CAF80050D1F804A01AF0805F79
:105390004CD0BD6926F0030845F00105BD61BD692B
:1053A00008F1804805F00105019508F5803806F000
:1053B000030B019D4FEA8B0BD8F8085009FA0BF943
:1053C00025EA0909394DA84262D005F58065A84251
:1053D00060D005F58065A8425ED005F58065A842DD
:1053E0000CBF0325042505FA0BF545EA0905C8F8A5
:1053F00008509D681AF4801F14BF2543A5439D6083
:10540000DD681AF4001F14BF2543A543DD605D6805
:105410001AF4003F14BF2543A5435D601D681AF4CC
:10542000803F14BF2C4325EA04041C60013671E759
:10543000DFF87C904D450CD017D8A9F580194D4563
:1054400007D009F570294D4503D0A9F580194D45C0
:1054500082D18A68D2B1012A08BFC0F810804FF00B
:10546000080218BFC0F8148076E76545F1D075458D
:10547000EEE7CA6870E7CA6804326DE7CA680832A6
:105480006AE7CA680C3267E7002265E7042263E72F
:105490000025A8E70125A6E70225A4E700100240A1
:1054A00000040140000031100000321000080140EB
:1054B000000022102DE9F74F4FF0040B00224FF0AF
:1054C000010A4FF00F0800EB0B0301932E4B31FA4A
:1054D00002F402D103B0BDE8F08F0AFA02F70F40E0
:1054E00049D022F0030404F1804404F5803402F032
:1054F000030CA5684FEA8C0C08FA0CF909EA050EB2
:10550000224DA84239D005F58065A84237D005F56F
:105510008065A84235D005F58065A8420CBF0325FB
:10552000042505FA0CF575456FEA07060FD11D68CD
:1055300035401D605D6835405D60DD683540DD608B
:105540009D6835409D60A56825EA0905A560FF2F87
:1055500094BF0746019F4FEA82043D6888BF203C04
:1055600008FA04FC25EA0C050BFA04F425433D6017
:10557000C4682640C6600132A9E70025D1E70125AD
:10558000CFE70225CDE700BF00040140000801403D
:105590008368194214BF0120002070470AB10161DD
:1055A00070470904FBE7016800224B6913F480632C
:1055B00010D06FF480634B612023026380F83D308C
:1055C00080F83E20036C80F83C2043F00403036421
:1055D00001207047184670472DE9F84606460F46E9
:1055E00091461D464FEA114A3368BAF1010F0CBFCC
:1055F0005C699C6927EA0404A4B2B4FA84F46409DF
:10560000A14501D0002025E06A1CEED0FFF782F909
:10561000089BC01AA84201D8002DE5D13368BAF121
:10562000010F0CBF5B699B6927EA03039BB2B3FAC6
:1056300083F35B099945D7D10023202201203363EE
:1056400086F83D2086F83E30326C86F83C3042F0D9
:1056500020023264BDE8F8862DE9F04104460F4689
:10566000164698462568686927EA000080B2B8B1F6
:105670006B695A0516D52B68202243F400732B6002
:105680006FF480636B610023236384F83D2084F80A
:105690003E30226C42F004020120226484F83C3047
:1056A000BDE8F081731CDED0FFF734F9A0EB0800F1
:1056B000B04201D8002ED5D123685A6927EA0202E8
:1056C00092B2002ACED000232022236384F83D200A
:1056D00084F83E30226C42F02002DDE770B50446CB
:1056E0000D46164623685B691B0601D5002070BD78
:1056F0002046FFF758FFC8B96A1CF3D0FFF70AF934
:10570000801BA84201D8002DECD123685B6913F0FF
:105710008003E7D12022236384F83D2084F83E30C3
:10572000226C84F83C3042F0200222640120DEE743
:1057300070B504460D46164623685B695B0701D5C4
:10574000002070BD2046FFF72EFFC8B96A1CF3D0B9
:10575000FFF7E0F8801BA84201D8002DECD12368A8
:105760005B6913F00403E7D12022236384F83D2012
:1057700084F83E30226C84F83C3042F020022264EF
:105780000120DEE770B504460D46164621684B69D8
:1057900013F0400301D0002010E04A69D2060ED574
:1057A0006FF010024A612022236384F83D2084F8C0
:1057B0003E30226C0120226484F83C3070BDFFF73B
:1057C000A9F8801BA84201D8002DDFD123685B69AE
:1057D00013F04003DAD12022236384F83D2084F8BB
:1057E0003E30226C42F02002E4E7000070B504462F
:1057F00008B9012070BD90F83D3003F0FF021BB9DD
:1058000080F83C20FDF78CFF242384F83D3023688A
:105810001A6822F001021A601A6842F400421A6003
:105820001A6822F400421A6000F084FD3F4A63685F
:10583000934294BF3E4A3F4A90428CBF00220122CD
:10584000002AD6D1394E3C49B342B0FBF1F188BFB2
:105850004FF49676226800F1FF30556825F03F0539
:1058600045EA010582BF71434FF47A76B1FBF6F148
:105870005560156A013125F03F0529431162D16950
:105880002A4D21F44F41AB4221F0FF0132D85B0099
:10589000B0FBF3F0431C40F6FC70034242D0C3F36C
:1058A0000B030B43D3611168D4E9073021F0C00129
:1058B00003430B4313609168D4E9030321F40341CC
:1058C000034321F0FF010B439360D168D4E9053015
:1058D00021F0FF0103430B43D3601368002043F022
:1058E000010313602023206484F83D30206384F892
:1058F0003E007FE7A56855B903EB4303B0FBF3F324
:105900000133C3F30B037BB143F40043C9E719250B
:105910006B43B0FBF3F30133C3F30B0323B143F445
:105920004043BEE70423BCE70123BAE7A086010099
:105930007F841E00FF083D0040420F0010B5044662
:1059400098B12423026880F83D30136823F00103E6
:105950001360FDF717FF0020206484F83C0084F8F2
:105960003D00206384F83E0010BD0120FCE70000EC
:105970002DE9F043044685B098460D4691460C9FAC
:10598000FEF7C8FF94F83D300646202B04D00225D0
:10599000284605B0BDE8F083009019230122204677
:1059A0005B49FFF719FE0028F1D194F83C30012B38
:1059B000EDD00123216884F83C300B68DA075EBF24
:1059C0000B6843F001030B600B6823F400630B606A
:1059D000212384F83D30102384F83E3000232364D3
:1059E000A4F82A80638DC4F824902385494BE36290
:1059F000E36A082B04D0012B02D013F5803F04D1B9
:105A00000B6843F480730B6002E0236B122BF7D01A
:105A100000223B464FF0011120460096FFF7DCFDC7
:105A2000226838B11368DB0544BF4FF40073236468
:105A30000125ADE72369B3F5804F21D105F0FE05BF
:105A4000156133463A4620463349FFF705FE0546C1
:105A50000028EDD1236803905A6903929B69039350
:105A6000039B238DF3B921680A6842F400720A602F
:105A7000202284F83C3084F83D2084F83E3087E7CB
:105A8000EB1103F0060343F0F003136120463346A5
:105A90003A462249FFF7E0FD0028C9D12368EDB25C
:105AA0001D61CEE7324639462046FFF717FE40B16A
:105AB000236C042BBCD12268136843F40073136079
:105AC000B6E7636A20681A4612F8011B0161626238
:105AD000628D013A92B26285228DD0F814C0511EB7
